{"contracts/mocks/MockHederaTokenService.sol":{"MockHederaTokenService":{"abi":[{"inputs":[],"name":"SUCCESS","outputs":[{"internalType":"int64","name":"","type":"int64"}],"stateMutability":"view","type":"function"},{"inputs":[{"internalType":"address","name":"","type":"address"},{"internalType":"address","name":"","type":"address"}],"name":"balanceOf","outputs":[{"internalType":"int64","name":"","type":"int64"}],"stateMutability":"view","type":"function"},{"inputs":[{"components":[{"internalType":"string","name":"name","type":"string"},{"internalType":"string","name":"symbol","type":"string"},{"internalType":"address","name":"treasury","type":"address"},{"internalType":"string","name":"memo","type":"string"},{"internalType":"bool","name":"tokenSupplyType","type":"bool"},{"internalType":"int64","name":"maxSupply","type":"int64"},{"internalType":"bool","name":"freezeDefault","type":"bool"},{"components":[{"internalType":"uint256","name":"keyType","type":"uint256"},{"components":[{"internalType":"bool","name":"inheritAccountKey","type":"bool"},{"internalType":"address","name":"contractId","type":"address"},{"internalType":"bytes","name":"ed25519","type":"bytes"},{"internalType":"bytes","name":"ECDSA_secp256k1","type":"bytes"},{"internalType":"address","name":"delegatableContractId","type":"address"}],"internalType":"struct IHederaTokenService.KeyValue","name":"key","type":"tuple"}],"internalType":"struct IHederaTokenService.TokenKey[]","name":"tokenKeys","type":"tuple[]"},{"components":[{"internalType":"int64","name":"second","type":"int64"},{"internalType":"address","name":"autoRenewAccount","type":"address"},{"internalType":"int64","name":"autoRenewPeriod","type":"int64"}],"internalType":"struct IHederaTokenService.Expiry","name":"expiry","type":"tuple"}],"internalType":"struct IHederaTokenService.HederaToken","name":"token","type":"tuple"},{"internalType":"int64","name":"initialTotalSupply","type":"int64"},{"internalType":"int32","name":"","type":"int32"}],"name":"createFungibleToken","outputs":[{"internalType":"int64","name":"","type":"int64"},{"internalType":"address","name":"","type":"address"}],"stateMutability":"payable","type":"function"},{"inputs":[{"internalType":"address","name":"token","type":"address"},{"internalType":"address","name":"from","type":"address"},{"internalType":"address","name":"to","type":"address"},{"internalType":"int64","name":"amount","type":"int64"}],"name":"transferToken","outputs":[{"internalType":"int64","name":"","type":"int64"}],"stateMutability":"nonpayable","type":"function"},{"inputs":[{"internalType":"address","name":"","type":"address"}],"name":"treasuryOf","outputs":[{"internalType":"address","name":"","type":"address"}],"stateMutability":"view","type":"function"}],"evm":{"bytecode":{"linkReferences":{},"object":"60808060405234610028575f80546001600160a01b0319166001179055610770908161002d8239f35b5f80fdfe60806040526004361015610011575f80fd5b5f3560e01c80630fb65bf31461024e578063d0a6d1a614610233578063eca36917146100dd578063f7888aec1461008d5763fd7f346b14610050575f80fd5b346100895760203660031901126100895760206001600160a01b03806100746106df565b165f526002825260405f205416604051908152f35b5f80fd5b34610089576040366003190112610089576100a66106df565b6100ae6106f5565b9060018060a01b038091165f52600160205260405f2091165f52602052602060405f205460070b604051908152f35b34610089576080366003190112610089576100f66106df565b6100fe6106f5565b6001600160a01b03916044358381169081900361008957606435918260070b80930361008957841692835f526020946001865260405f20911690815f5285528260405f205460070b126101ee57835f526001855260405f20905f52845260405f20805491838360070b0390677fffffffffffffff95677fffffffffffffff1993878413858512176101da576001600160401b031995866001600160401b0395861691161790555f526001875260405f20905f52865260405f20948554948560070b01928312908313176101da5716911617905560405160168152f35b634e487b7160e01b5f52601160045260245ffd5b60405162461bcd60e51b815260048101869052601d60248201527f4d6f636b4854533a20696e73756666696369656e742062616c616e63650000006044820152606490fd5b34610089575f36600319011261008957602060405160168152f35b600319606036820112610089576001600160401b0360043511610089576101609060043536030112610089576101a0604052600435600401356001600160401b038111610089576102a690600436918135010161068e565b608052602460043501356001600160401b038111610089576102cf90600436918135010161068e565b60a0526102e060043560440161070b565b60c052600435606401356001600160401b0381116100895761030990600436918135010161068e565b60e05261031a60043560840161071f565b6101005261032c60043560a40161072c565b6101205261033e60043560c40161071f565b6101405260043560e401356001600160401b038111610089573660238260043501011215610089576001600160401b036004828135010135116104e557600481813501013560051b9061039360208301610669565b916020836004848135010135815201366024838560043501010111610089576024836004350101905b6024838560043501010182106104f9576101608590526060600435360361010319011261008957604051606081018181106001600160401b038211176104e55760405261040e6101046004350161072c565b815261041f6101246004350161070b565b60208201526104336101446004350161072c565b604082015261018052602435600781900b8103610089576044358060030b03610089575f54906001600160a01b0380831691908281146101da576040936bffffffffffffffffffffffff60a01b90818360018701169116175f5581856080015116845f526002602052855f20918254161790556001602052835f20908460800151165f52602052825f20906001600160401b0319825416906001600160401b0316179055815190601682526020820152f35b634e487b7160e01b5f52604160045260245ffd5b8135906001600160401b038211610089576040600435860183013603602319011261008957604051908160408101106001600160401b036040840111176104e55760408281019052600435860183016024810135835260440135906001600160401b0382116100895760a06004358801850183013603602319011261008957604051928360a08101106001600160401b0360a0860111176104e55760a084016040526105af602484878b6004350101010161071f565b84526105c5604484878b6004350101010161070b565b6020850152606483868a60043501010101356001600160401b038111610089576105fd906024369186898d600435010101010161068e565b6040850152608483868a6004350101010135936001600160401b0385116100895761065360a485886106418d602460209b8c9b829e3694600435010101010161068e565b60608601528c6004350101010161070b565b60808201528382015281520192019190506103bc565b6040519190601f01601f191682016001600160401b038111838210176104e557604052565b81601f82011215610089578035906001600160401b0382116104e5576106bd601f8301601f1916602001610669565b928284526020838301011161008957815f926020809301838601378301015290565b600435906001600160a01b038216820361008957565b602435906001600160a01b038216820361008957565b35906001600160a01b038216820361008957565b3590811515820361008957565b35908160070b82036100895756fea2646970667358221220b0fab0484f8fcb0a6749e8086044b84a92987ab2232c742788d17837f81f374f64736f6c63430008180033","opcodes":"PUSH1 0x80 DUP1 PUSH1 0x40 MSTORE CALLVALUE PUSH2 0x28 JUMPI PUSH0 DUP1 SLOAD PUSH1 0x1 PUSH1 0x1 PUSH1 0xA0 SHL SUB NOT AND PUSH1 0x1 OR SWAP1 SSTORE PUSH2 0x770 SWAP1 DUP2 PUSH2 0x2D DUP3 CODECOPY RETURN JUMPDEST PUSH0 DUP1 REVERT INVALID PUSH1 0x80 PUSH1 0x40 MSTORE PUSH1 0x4 CALLDATASIZE LT ISZERO PUSH2 0x11 JUMPI PUSH0 DUP1 REVERT JUMPDEST PUSH0 CALLDATALOAD PUSH1 0xE0 SHR DUP1 PUSH4 0xFB65BF3 EQ PUSH2 0x24E JUMPI DUP1 PUSH4 0xD0A6D1A6 EQ PUSH2 0x233 JUMPI DUP1 PUSH4 0xECA36917 EQ PUSH2 0xDD JUMPI DUP1 PUSH4 0xF7888AEC EQ PUSH2 0x8D JUMPI PUSH4 0xFD7F346B EQ PUSH2 0x50 JUMPI PUSH0 DUP1 REVERT JUMPDEST CALLVALUE PUSH2 0x89 JUMPI PUSH1 0x20 CALLDATASIZE PUSH1 0x3 NOT ADD SLT PUSH2 0x89 JUMPI PUSH1 0x20 PUSH1 0x1 PUSH1 0x1 PUSH1 0xA0 SHL SUB DUP1 PUSH2 0x74 PUSH2 0x6DF JUMP JUMPDEST AND PUSH0 MSTORE PUSH1 0x2 DUP3 MSTORE PUSH1 0x40 PUSH0 KECCAK256 SLOAD AND PUSH1 0x40 MLOAD SWAP1 DUP2 MSTORE RETURN JUMPDEST PUSH0 DUP1 REVERT JUMPDEST CALLVALUE PUSH2 0x89 JUMPI PUSH1 0x40 CALLDATASIZE PUSH1 0x3 NOT ADD SLT PUSH2 0x89 JUMPI PUSH2 0xA6 PUSH2 0x6DF JUMP JUMPDEST PUSH2 0xAE PUSH2 0x6F5 JUMP JUMPDEST SWAP1 PUSH1 0x1 DUP1 PUSH1 0xA0 SHL SUB DUP1 SWAP2 AND PUSH0 MSTORE PUSH1 0x1 PUSH1 0x20 MSTORE PUSH1 0x40 PUSH0 KECCAK256 SWAP2 AND PUSH0 MSTORE PUSH1 0x20 MSTORE PUSH1 0x20 PUSH1 0x40 PUSH0 KECCAK256 SLOAD PUSH1 0x7 SIGNEXTEND PUSH1 0x40 MLOAD SWAP1 DUP2 MSTORE RETURN JUMPDEST CALLVALUE PUSH2 0x89 JUMPI PUSH1 0x80 CALLDATASIZE PUSH1 0x3 NOT ADD SLT PUSH2 0x89 JUMPI PUSH2 0xF6 PUSH2 0x6DF JUMP JUMPDEST PUSH2 0xFE PUSH2 0x6F5 JUMP JUMPDEST PUSH1 0x1 PUSH1 0x1 PUSH1 0xA0 SHL SUB SWAP2 PUSH1 0x44 CALLDATALOAD DUP4 DUP2 AND SWAP1 DUP2 SWAP1 SUB PUSH2 0x89 JUMPI PUSH1 0x64 CALLDATALOAD SWAP2 DUP3 PUSH1 0x7 SIGNEXTEND DUP1 SWAP4 SUB PUSH2 0x89 JUMPI DUP5 AND SWAP3 DUP4 PUSH0 MSTORE PUSH1 0x20 SWAP5 PUSH1 0x1 DUP7 MSTORE PUSH1 0x40 PUSH0 KECCAK256 SWAP2 AND SWAP1 DUP2 PUSH0 MSTORE DUP6 MSTORE DUP3 PUSH1 0x40 PUSH0 KECCAK256 SLOAD PUSH1 0x7 SIGNEXTEND SLT PUSH2 0x1EE JUMPI DUP4 PUSH0 MSTORE PUSH1 0x1 DUP6 MSTORE PUSH1 0x40 PUSH0 KECCAK256 SWAP1 PUSH0 MSTORE DUP5 MSTORE PUSH1 0x40 PUSH0 KECCAK256 DUP1 SLOAD SWAP2 DUP4 DUP4 PUSH1 0x7 SIGNEXTEND SUB SWAP1 PUSH8 0x7FFFFFFFFFFFFFFF SWAP6 PUSH8 0x7FFFFFFFFFFFFFFF NOT SWAP4 DUP8 DUP5 SGT DUP6 DUP6 SLT OR PUSH2 0x1DA JUMPI PUSH1 0x1 PUSH1 0x1 PUSH1 0x40 SHL SUB NOT SWAP6 DUP7 PUSH1 0x1 PUSH1 0x1 PUSH1 0x40 SHL SUB SWAP6 DUP7 AND SWAP2 AND OR SWAP1 SSTORE PUSH0 MSTORE PUSH1 0x1 DUP8 MSTORE PUSH1 0x40 PUSH0 KECCAK256 SWAP1 PUSH0 MSTORE DUP7 MSTORE PUSH1 0x40 PUSH0 KECCAK256 SWAP5 DUP6 SLOAD SWAP5 DUP6 PUSH1 0x7 SIGNEXTEND ADD SWAP3 DUP4 SLT SWAP1 DUP4 SGT OR PUSH2 0x1DA JUMPI AND SWAP2 AND OR SWAP1 SSTORE PUSH1 0x40 MLOAD PUSH1 0x16 DUP2 MSTORE RETURN JUMPDEST PUSH4 0x4E487B71 PUSH1 0xE0 SHL PUSH0 MSTORE PUSH1 0x11 PUSH1 0x4 MSTORE PUSH1 0x24 PUSH0 REVERT JUMPDEST PUSH1 0x40 MLOAD PUSH3 0x461BCD PUSH1 0xE5 SHL DUP2 MSTORE PUSH1 0x4 DUP2 ADD DUP7 SWAP1 MSTORE PUSH1 0x1D PUSH1 0x24 DUP3 ADD MSTORE PUSH32 0x4D6F636B4854533A20696E73756666696369656E742062616C616E6365000000 PUSH1 0x44 DUP3 ADD MSTORE PUSH1 0x64 SWAP1 REVERT JUMPDEST CALLVALUE PUSH2 0x89 JUMPI PUSH0 CALLDATASIZE PUSH1 0x3 NOT ADD SLT PUSH2 0x89 JUMPI PUSH1 0x20 PUSH1 0x40 MLOAD PUSH1 0x16 DUP2 MSTORE RETURN JUMPDEST PUSH1 0x3 NOT PUSH1 0x60 CALLDATASIZE DUP3 ADD SLT PUSH2 0x89 JUMPI PUSH1 0x1 PUSH1 0x1 PUSH1 0x40 SHL SUB PUSH1 0x4 CALLDATALOAD GT PUSH2 0x89 JUMPI PUSH2 0x160 SWAP1 PUSH1 0x4 CALLDATALOAD CALLDATASIZE SUB ADD SLT PUSH2 0x89 JUMPI PUSH2 0x1A0 PUSH1 0x40 MSTORE PUSH1 0x4 CALLDATALOAD PUSH1 0x4 ADD CALLDATALOAD PUSH1 0x1 PUSH1 0x1 PUSH1 0x40 SHL SUB DUP2 GT PUSH2 0x89 JUMPI PUSH2 0x2A6 SWAP1 PUSH1 0x4 CALLDATASIZE SWAP2 DUP2 CALLDATALOAD ADD ADD PUSH2 0x68E JUMP JUMPDEST PUSH1 0x80 MSTORE PUSH1 0x24 PUSH1 0x4 CALLDATALOAD ADD CALLDATALOAD PUSH1 0x1 PUSH1 0x1 PUSH1 0x40 SHL SUB DUP2 GT PUSH2 0x89 JUMPI PUSH2 0x2CF SWAP1 PUSH1 0x4 CALLDATASIZE SWAP2 DUP2 CALLDATALOAD ADD ADD PUSH2 0x68E JUMP JUMPDEST PUSH1 0xA0 MSTORE PUSH2 0x2E0 PUSH1 0x4 CALLDATALOAD PUSH1 0x44 ADD PUSH2 0x70B JUMP JUMPDEST PUSH1 0xC0 MSTORE PUSH1 0x4 CALLDATALOAD PUSH1 0x64 ADD CALLDATALOAD PUSH1 0x1 PUSH1 0x1 PUSH1 0x40 SHL SUB DUP2 GT PUSH2 0x89 JUMPI PUSH2 0x309 SWAP1 PUSH1 0x4 CALLDATASIZE SWAP2 DUP2 CALLDATALOAD ADD ADD PUSH2 0x68E JUMP JUMPDEST PUSH1 0xE0 MSTORE PUSH2 0x31A PUSH1 0x4 CALLDATALOAD PUSH1 0x84 ADD PUSH2 0x71F JUMP JUMPDEST PUSH2 0x100 MSTORE PUSH2 0x32C PUSH1 0x4 CALLDATALOAD PUSH1 0xA4 ADD PUSH2 0x72C JUMP JUMPDEST PUSH2 0x120 MSTORE PUSH2 0x33E PUSH1 0x4 CALLDATALOAD PUSH1 0xC4 ADD PUSH2 0x71F JUMP JUMPDEST PUSH2 0x140 MSTORE PUSH1 0x4 CALLDATALOAD PUSH1 0xE4 ADD CALLDATALOAD PUSH1 0x1 PUSH1 0x1 PUSH1 0x40 SHL SUB DUP2 GT PUSH2 0x89 JUMPI CALLDATASIZE PUSH1 0x23 DUP3 PUSH1 0x4 CALLDATALOAD ADD ADD SLT ISZERO PUSH2 0x89 JUMPI PUSH1 0x1 PUSH1 0x1 PUSH1 0x40 SHL SUB PUSH1 0x4 DUP3 DUP2 CALLDATALOAD ADD ADD CALLDATALOAD GT PUSH2 0x4E5 JUMPI PUSH1 0x4 DUP2 DUP2 CALLDATALOAD ADD ADD CALLDATALOAD PUSH1 0x5 SHL SWAP1 PUSH2 0x393 PUSH1 0x20 DUP4 ADD PUSH2 0x669 JUMP JUMPDEST SWAP2 PUSH1 0x20 DUP4 PUSH1 0x4 DUP5 DUP2 CALLDATALOAD ADD ADD CALLDATALOAD DUP2 MSTORE ADD CALLDATASIZE PUSH1 0x24 DUP4 DUP6 PUSH1 0x4 CALLDATALOAD ADD ADD ADD GT PUSH2 0x89 JUMPI PUSH1 0x24 DUP4 PUSH1 0x4 CALLDATALOAD ADD ADD SWAP1 JUMPDEST PUSH1 0x24 DUP4 DUP6 PUSH1 0x4 CALLDATALOAD ADD ADD ADD DUP3 LT PUSH2 0x4F9 JUMPI PUSH2 0x160 DUP6 SWAP1 MSTORE PUSH1 0x60 PUSH1 0x4 CALLDATALOAD CALLDATASIZE SUB PUSH2 0x103 NOT ADD SLT PUSH2 0x89 JUMPI PUSH1 0x40 MLOAD PUSH1 0x60 DUP2 ADD DUP2 DUP2 LT PUSH1 0x1 PUSH1 0x1 PUSH1 0x40 SHL SUB DUP3 GT OR PUSH2 0x4E5 JUMPI PUSH1 0x40 MSTORE PUSH2 0x40E PUSH2 0x104 PUSH1 0x4 CALLDATALOAD ADD PUSH2 0x72C JUMP JUMPDEST DUP2 MSTORE PUSH2 0x41F PUSH2 0x124 PUSH1 0x4 CALLDATALOAD ADD PUSH2 0x70B JUMP JUMPDEST PUSH1 0x20 DUP3 ADD MSTORE PUSH2 0x433 PUSH2 0x144 PUSH1 0x4 CALLDATALOAD ADD PUSH2 0x72C JUMP JUMPDEST PUSH1 0x40 DUP3 ADD MSTORE PUSH2 0x180 MSTORE PUSH1 0x24 CALLDATALOAD PUSH1 0x7 DUP2 SWAP1 SIGNEXTEND DUP2 SUB PUSH2 0x89 JUMPI PUSH1 0x44 CALLDATALOAD DUP1 PUSH1 0x3 SIGNEXTEND SUB PUSH2 0x89 JUMPI PUSH0 SLOAD SWAP1 PUSH1 0x1 PUSH1 0x1 PUSH1 0xA0 SHL SUB DUP1 DUP4 AND SWAP2 SWAP1 DUP3 DUP2 EQ PUSH2 0x1DA JUMPI PUSH1 0x40 SWAP4 PUSH12 0xFFFFFFFFFFFFFFFFFFFFFFFF PUSH1 0xA0 SHL SWAP1 DUP2 DUP4 PUSH1 0x1 DUP8 ADD AND SWAP2 AND OR PUSH0 SSTORE DUP2 DUP6 PUSH1 0x80 ADD MLOAD AND DUP5 PUSH0 MSTORE PUSH1 0x2 PUSH1 0x20 MSTORE DUP6 PUSH0 KECCAK256 SWAP2 DUP3 SLOAD AND OR SWAP1 SSTORE PUSH1 0x1 PUSH1 0x20 MSTORE DUP4 PUSH0 KECCAK256 SWAP1 DUP5 PUSH1 0x80 ADD MLOAD AND PUSH0 MSTORE PUSH1 0x20 MSTORE DUP3 PUSH0 KECCAK256 SWAP1 PUSH1 0x1 PUSH1 0x1 PUSH1 0x40 SHL SUB NOT DUP3 SLOAD AND SWAP1 PUSH1 0x1 PUSH1 0x1 PUSH1 0x40 SHL SUB AND OR SWAP1 SSTORE DUP2 MLOAD SWAP1 PUSH1 0x16 DUP3 MSTORE PUSH1 0x20 DUP3 ADD MSTORE RETURN JUMPDEST PUSH4 0x4E487B71 PUSH1 0xE0 SHL PUSH0 MSTORE PUSH1 0x41 PUSH1 0x4 MSTORE PUSH1 0x24 PUSH0 REVERT JUMPDEST DUP2 CALLDATALOAD SWAP1 PUSH1 0x1 PUSH1 0x1 PUSH1 0x40 SHL SUB DUP3 GT PUSH2 0x89 JUMPI PUSH1 0x40 PUSH1 0x4 CALLDATALOAD DUP7 ADD DUP4 ADD CALLDATASIZE SUB PUSH1 0x23 NOT ADD SLT PUSH2 0x89 JUMPI PUSH1 0x40 MLOAD SWAP1 DUP2 PUSH1 0x40 DUP2 ADD LT PUSH1 0x1 PUSH1 0x1 PUSH1 0x40 SHL SUB PUSH1 0x40 DUP5 ADD GT OR PUSH2 0x4E5 JUMPI PUSH1 0x40 DUP3 DUP2 ADD SWAP1 MSTORE PUSH1 0x4 CALLDATALOAD DUP7 ADD DUP4 ADD PUSH1 0x24 DUP2 ADD CALLDATALOAD DUP4 MSTORE PUSH1 0x44 ADD CALLDATALOAD SWAP1 PUSH1 0x1 PUSH1 0x1 PUSH1 0x40 SHL SUB DUP3 GT PUSH2 0x89 JUMPI PUSH1 0xA0 PUSH1 0x4 CALLDATALOAD DUP9 ADD DUP6 ADD DUP4 ADD CALLDATASIZE SUB PUSH1 0x23 NOT ADD SLT PUSH2 0x89 JUMPI PUSH1 0x40 MLOAD SWAP3 DUP4 PUSH1 0xA0 DUP2 ADD LT PUSH1 0x1 PUSH1 0x1 PUSH1 0x40 SHL SUB PUSH1 0xA0 DUP7 ADD GT OR PUSH2 0x4E5 JUMPI PUSH1 0xA0 DUP5 ADD PUSH1 0x40 MSTORE PUSH2 0x5AF PUSH1 0x24 DUP5 DUP8 DUP12 PUSH1 0x4 CALLDATALOAD ADD ADD ADD ADD PUSH2 0x71F JUMP JUMPDEST DUP5 MSTORE PUSH2 0x5C5 PUSH1 0x44 DUP5 DUP8 DUP12 PUSH1 0x4 CALLDATALOAD ADD ADD ADD ADD PUSH2 0x70B JUMP JUMPDEST PUSH1 0x20 DUP6 ADD MSTORE PUSH1 0x64 DUP4 DUP7 DUP11 PUSH1 0x4 CALLDATALOAD ADD ADD ADD ADD CALLDATALOAD PUSH1 0x1 PUSH1 0x1 PUSH1 0x40 SHL SUB DUP2 GT PUSH2 0x89 JUMPI PUSH2 0x5FD SWAP1 PUSH1 0x24 CALLDATASIZE SWAP2 DUP7 DUP10 DUP14 PUSH1 0x4 CALLDATALOAD ADD ADD ADD ADD ADD PUSH2 0x68E JUMP JUMPDEST PUSH1 0x40 DUP6 ADD MSTORE PUSH1 0x84 DUP4 DUP7 DUP11 PUSH1 0x4 CALLDATALOAD ADD ADD ADD ADD CALLDATALOAD SWAP4 PUSH1 0x1 PUSH1 0x1 PUSH1 0x40 SHL SUB DUP6 GT PUSH2 0x89 JUMPI PUSH2 0x653 PUSH1 0xA4 DUP6 DUP9 PUSH2 0x641 DUP14 PUSH1 0x24 PUSH1 0x20 SWAP12 DUP13 SWAP12 DUP3 SWAP15 CALLDATASIZE SWAP5 PUSH1 0x4 CALLDATALOAD ADD ADD ADD ADD ADD PUSH2 0x68E JUMP JUMPDEST PUSH1 0x60 DUP7 ADD MSTORE DUP13 PUSH1 0x4 CALLDATALOAD ADD ADD ADD ADD PUSH2 0x70B JUMP JUMPDEST PUSH1 0x80 DUP3 ADD MSTORE DUP4 DUP3 ADD MSTORE DUP2 MSTORE ADD SWAP3 ADD SWAP2 SWAP1 POP PUSH2 0x3BC JUMP JUMPDEST PUSH1 0x40 MLOAD SWAP2 SWAP1 PUSH1 0x1F ADD PUSH1 0x1F NOT AND DUP3 ADD PUSH1 0x1 PUSH1 0x1 PUSH1 0x40 SHL SUB DUP2 GT DUP4 DUP3 LT OR PUSH2 0x4E5 JUMPI PUSH1 0x40 MSTORE JUMP JUMPDEST DUP2 PUSH1 0x1F DUP3 ADD SLT ISZERO PUSH2 0x89 JUMPI DUP1 CALLDATALOAD SWAP1 PUSH1 0x1 PUSH1 0x1 PUSH1 0x40 SHL SUB DUP3 GT PUSH2 0x4E5 JUMPI PUSH2 0x6BD PUSH1 0x1F DUP4 ADD PUSH1 0x1F NOT AND PUSH1 0x20 ADD PUSH2 0x669 JUMP JUMPDEST SWAP3 DUP3 DUP5 MSTORE PUSH1 0x20 DUP4 DUP4 ADD ADD GT PUSH2 0x89 JUMPI DUP2 PUSH0 SWAP3 PUSH1 0x20 DUP1 SWAP4 ADD DUP4 DUP7 ADD CALLDATACOPY DUP4 ADD ADD MSTORE SWAP1 JUMP JUMPDEST PUSH1 0x4 CALLDATALOAD SWAP1 PUSH1 0x1 PUSH1 0x1 PUSH1 0xA0 SHL SUB DUP3 AND DUP3 SUB PUSH2 0x89 JUMPI JUMP JUMPDEST PUSH1 0x24 CALLDATALOAD SWAP1 PUSH1 0x1 PUSH1 0x1 PUSH1 0xA0 SHL SUB DUP3 AND DUP3 SUB PUSH2 0x89 JUMPI JUMP JUMPDEST CALLDATALOAD SWAP1 PUSH1 0x1 PUSH1 0x1 PUSH1 0xA0 SHL SUB DUP3 AND DUP3 SUB PUSH2 0x89 JUMPI JUMP JUMPDEST CALLDATALOAD SWAP1 DUP2 ISZERO ISZERO DUP3 SUB PUSH2 0x89 JUMPI JUMP JUMPDEST CALLDATALOAD SWAP1 DUP2 PUSH1 0x7 SIGNEXTEND DUP3 SUB PUSH2 0x89 JUMPI JUMP INVALID LOG2 PUSH5 0x6970667358 0x22 SLT KECCAK256 0xB0 STATICCALL 0xB0 BASEFEE 0x4F DUP16 0xCB EXP PUSH8 0x49E8086044B84A92 SWAP9 PUSH27 0xB2232C742788D17837F81F374F64736F6C63430008180033000000 "},"methodIdentifiers":{"SUCCESS()":"d0a6d1a6","balanceOf(address,address)":"f7888aec","createFungibleToken((string,string,address,string,bool,int64,bool,(uint256,(bool,address,bytes,bytes,address))[],(int64,address,int64)),int64,int32)":"0fb65bf3","transferToken(address,address,address,int64)":"eca36917","treasuryOf(address)":"fd7f346b"}}}}}