{"contracts/CorpusRegistry.sol":{"CorpusRegistry":{"abi":[{"inputs":[{"internalType":"address","name":"_htsPrecompile","type":"address"},{"internalType":"address","name":"_corpusProtocolWallet","type":"address"}],"stateMutability":"nonpayable","type":"constructor"},{"inputs":[],"name":"CorpusInactive","type":"error"},{"inputs":[],"name":"CorpusNotFound","type":"error"},{"inputs":[],"name":"EmptyName","type":"error"},{"inputs":[],"name":"EmptyTokenName","type":"error"},{"inputs":[{"internalType":"int64","name":"responseCode","type":"int64"}],"name":"HTSCreateFailed","type":"error"},{"inputs":[{"internalType":"int64","name":"responseCode","type":"int64"}],"name":"HTSTransferFailed","type":"error"},{"inputs":[],"name":"InvalidAddress","type":"error"},{"inputs":[],"name":"InvalidShares","type":"error"},{"inputs":[],"name":"NotCreator","type":"error"},{"inputs":[],"name":"SupplyTooLarge","type":"error"},{"anonymous":false,"inputs":[{"indexed":true,"internalType":"uint256","name":"corpusId","type":"uint256"},{"indexed":true,"internalType":"address","name":"creator","type":"address"},{"indexed":false,"internalType":"string","name":"name","type":"string"}],"name":"CorpusCreated","type":"event"},{"anonymous":false,"inputs":[{"indexed":true,"internalType":"uint256","name":"corpusId","type":"uint256"}],"name":"CorpusDeactivated","type":"event"},{"anonymous":false,"inputs":[{"indexed":true,"internalType":"uint256","name":"corpusId","type":"uint256"}],"name":"KernelUpdated","type":"event"},{"anonymous":false,"inputs":[{"indexed":true,"internalType":"uint256","name":"corpusId","type":"uint256"}],"name":"PatronUpdated","type":"event"},{"anonymous":false,"inputs":[{"indexed":true,"internalType":"uint256","name":"corpusId","type":"uint256"},{"indexed":false,"internalType":"address","name":"tokenAddress","type":"address"},{"indexed":false,"internalType":"uint256","name":"totalSupply","type":"uint256"},{"indexed":false,"internalType":"uint256","name":"protocolFee","type":"uint256"}],"name":"PulseTokenCreated","type":"event"},{"anonymous":false,"inputs":[{"indexed":true,"internalType":"uint256","name":"corpusId","type":"uint256"}],"name":"PulseUpdated","type":"event"},{"inputs":[],"name":"HTS_SUCCESS","outputs":[{"internalType":"int64","name":"","type":"int64"}],"stateMutability":"view","type":"function"},{"inputs":[],"name":"LAUNCHPAD_FEE_BPS","outputs":[{"internalType":"uint16","name":"","type":"uint16"}],"stateMutability":"view","type":"function"},{"inputs":[],"name":"corpusProtocolWallet","outputs":[{"internalType":"address","name":"","type":"address"}],"stateMutability":"view","type":"function"},{"inputs":[{"internalType":"string","name":"name","type":"string"},{"internalType":"string","name":"category","type":"string"},{"components":[{"internalType":"uint16","name":"creatorShare","type":"uint16"},{"internalType":"uint16","name":"investorShare","type":"uint16"},{"internalType":"uint16","name":"treasuryShare","type":"uint16"},{"internalType":"address","name":"creatorAddr","type":"address"},{"internalType":"address","name":"investorAddr","type":"address"},{"internalType":"address","name":"treasuryAddr","type":"address"}],"internalType":"struct CorpusRegistry.PatronConfig","name":"patron","type":"tuple"},{"components":[{"internalType":"uint256","name":"approvalThreshold","type":"uint256"},{"internalType":"uint256","name":"gtmBudget","type":"uint256"},{"internalType":"uint256","name":"minPatronPulse","type":"uint256"}],"internalType":"struct CorpusRegistry.KernelConfig","name":"kernel","type":"tuple"},{"components":[{"internalType":"address","name":"hederaTokenAddr","type":"address"},{"internalType":"uint256","name":"totalSupply","type":"uint256"},{"internalType":"uint256","name":"priceUsdCents","type":"uint256"}],"internalType":"struct CorpusRegistry.PulseConfig","name":"pulse","type":"tuple"},{"internalType":"string","name":"tokenName","type":"string"},{"internalType":"string","name":"tokenSymbol","type":"string"}],"name":"createCorpus","outputs":[{"internalType":"uint256","name":"corpusId","type":"uint256"}],"stateMutability":"payable","type":"function"},{"inputs":[{"internalType":"uint256","name":"corpusId","type":"uint256"}],"name":"creatorOf","outputs":[{"internalType":"address","name":"","type":"address"}],"stateMutability":"view","type":"function"},{"inputs":[{"internalType":"uint256","name":"corpusId","type":"uint256"}],"name":"deactivateCorpus","outputs":[],"stateMutability":"nonpayable","type":"function"},{"inputs":[{"internalType":"uint256","name":"corpusId","type":"uint256"}],"name":"getCorpus","outputs":[{"components":[{"internalType":"uint256","name":"id","type":"uint256"},{"internalType":"string","name":"name","type":"string"},{"internalType":"string","name":"category","type":"string"},{"internalType":"address","name":"creator","type":"address"},{"components":[{"internalType":"uint16","name":"creatorShare","type":"uint16"},{"internalType":"uint16","name":"investorShare","type":"uint16"},{"internalType":"uint16","name":"treasuryShare","type":"uint16"},{"internalType":"address","name":"creatorAddr","type":"address"},{"internalType":"address","name":"investorAddr","type":"address"},{"internalType":"address","name":"treasuryAddr","type":"address"}],"internalType":"struct CorpusRegistry.PatronConfig","name":"patron","type":"tuple"},{"components":[{"internalType":"uint256","name":"approvalThreshold","type":"uint256"},{"internalType":"uint256","name":"gtmBudget","type":"uint256"},{"internalType":"uint256","name":"minPatronPulse","type":"uint256"}],"internalType":"struct CorpusRegistry.KernelConfig","name":"kernel","type":"tuple"},{"components":[{"internalType":"address","name":"hederaTokenAddr","type":"address"},{"internalType":"uint256","name":"totalSupply","type":"uint256"},{"internalType":"uint256","name":"priceUsdCents","type":"uint256"}],"internalType":"struct CorpusRegistry.PulseConfig","name":"pulse","type":"tuple"},{"internalType":"uint256","name":"createdAt","type":"uint256"},{"internalType":"bool","name":"active","type":"bool"}],"internalType":"struct CorpusRegistry.Corpus","name":"","type":"tuple"}],"stateMutability":"view","type":"function"},{"inputs":[],"name":"hts","outputs":[{"internalType":"contract IHederaTokenService","name":"","type":"address"}],"stateMutability":"view","type":"function"},{"inputs":[{"internalType":"uint256","name":"corpusId","type":"uint256"}],"name":"isActive","outputs":[{"internalType":"bool","name":"","type":"bool"}],"stateMutability":"view","type":"function"},{"inputs":[],"name":"nextCorpusId","outputs":[{"internalType":"uint256","name":"","type":"uint256"}],"stateMutability":"view","type":"function"},{"inputs":[{"internalType":"uint256","name":"corpusId","type":"uint256"},{"components":[{"internalType":"uint256","name":"approvalThreshold","type":"uint256"},{"internalType":"uint256","name":"gtmBudget","type":"uint256"},{"internalType":"uint256","name":"minPatronPulse","type":"uint256"}],"internalType":"struct CorpusRegistry.KernelConfig","name":"kernel","type":"tuple"}],"name":"updateKernel","outputs":[],"stateMutability":"nonpayable","type":"function"},{"inputs":[{"internalType":"uint256","name":"corpusId","type":"uint256"},{"components":[{"internalType":"uint16","name":"creatorShare","type":"uint16"},{"internalType":"uint16","name":"investorShare","type":"uint16"},{"internalType":"uint16","name":"treasuryShare","type":"uint16"},{"internalType":"address","name":"creatorAddr","type":"address"},{"internalType":"address","name":"investorAddr","type":"address"},{"internalType":"address","name":"treasuryAddr","type":"address"}],"internalType":"struct CorpusRegistry.PatronConfig","name":"patron","type":"tuple"}],"name":"updatePatron","outputs":[],"stateMutability":"nonpayable","type":"function"},{"inputs":[{"internalType":"uint256","name":"corpusId","type":"uint256"},{"components":[{"internalType":"address","name":"hederaTokenAddr","type":"address"},{"internalType":"uint256","name":"totalSupply","type":"uint256"},{"internalType":"uint256","name":"priceUsdCents","type":"uint256"}],"internalType":"struct CorpusRegistry.PulseConfig","name":"pulse","type":"tuple"}],"name":"updatePulse","outputs":[],"stateMutability":"nonpayable","type":"function"},{"stateMutability":"payable","type":"receive"}],"evm":{"bytecode":{"linkReferences":{},"object":"60c03461009d57601f61191438819003918201601f19168301916001600160401b038311848410176100a157808492604094855283398101031261009d57610052602061004b836100b5565b92016100b5565b600180556001600160a01b0390911660805260a05260405161184a90816100ca82396080518181816101d20152818161069a015261177e015260a05181818161021601526107220152f35b5f80fd5b634e487b7160e01b5f52604160045260245ffd5b51906001600160a01b038216820361009d5756fe608080604052600436101561001c575b50361561001a575f80fd5b005b5f3560e01c9081631164202014611252575080634362e30c146111b4578063589a1743146111805780636b6e241114610e7957806382afd23b14610e48578063b65b657614610e2b578063bd9fa86a14610e10578063c8993e8c14610df4578063dee4e43b146102ec578063e556887a14610245578063f449e33514610201578063f453a53e146101bd5763f830db06146100b7575f61000f565b34610183576100c5366114ef565b5f828152602081905260409020600301546001600160a01b0391908216156101ab57825f525f60205281600360405f20015416330361019957825f525f60205260ff600e60405f200154161561018757825f525f60205260405f2091600a830191803591821680920361018357600c926040926bffffffffffffffffffffffff60a01b8254161790556020810135600b85015501359101557f39cb946c4aba4a9442a0e861abdad3b6a4eeba112d6a0299411d7d0b83e445cc5f80a2005b5f80fd5b6040516305e58dbb60e11b8152600490fd5b6040516393687c0b60e01b8152600490fd5b604051636f2875cd60e01b8152600490fd5b34610183575f366003190112610183576040517f00000000000000000000000000000000000000000000000000000000000000006001600160a01b03168152602090f35b34610183575f366003190112610183576040517f00000000000000000000000000000000000000000000000000000000000000006001600160a01b03168152602090f35b3461018357610253366114ef565b5f828152602081905260409020600301546001600160a01b03908116156101ab57825f525f602052600360405f20015416330361019957815f525f60205260ff600e60405f200154161561018757815f525f60205260096040805f2092803560078501556020810135600885015501359101557f942cf7abe001c0241e54cb1ca85f0b7deb7a7c9531ad59f48b29b125c5cfe5415f80a2005b610200366003190112610183576004356001600160401b038111610183576103189036906004016114c2565b6024356001600160401b038111610183576103379036906004016114c2565b9060c03660431901126101835760603661010319011261018357606036610163190112610183576101c4356001600160401b0381116101835761037e9036906004016114c2565b90946101e4356001600160401b038111610183576103a09036906004016114c2565b96908615610de2578315610dd057677fffffffffffffff6101843511610dbe5760443561ffff81168091036101835760643561ffff8116809103610183576103e7916116e4565b61ffff608435169081608435036101835761271091610405916116e4565b03610dac5760a4356001600160a01b0381168103610183576001600160a01b038116158015610d89575b8015610d6d575b610d0b5760c4356001600160a01b0381168103610183576001600160a01b0382811690821614918215610d43575b508115610d1d575b50610d0b57600154975f198914610bed5760018901600155604051918260208101106001600160401b03602085011117610b20576104ed91602084016040525f84526104e4604051956104be87611595565b5f87523060208801526276a7006040880152604051986104dd8a61155e565b36916116f1565b875236916116f1565b60208501523060408501526040518060408101106001600160401b03604083011117610b205760408101604052601281527121b7b9383ab990283ab639b2902a37b5b2b760711b60208201526060850152600160808501526001600160401b03610184351660070b60a08501525f60c085015260e084015261010083015260405191630fb65bf360e01b835260606004840152826105de6105b561059f845161016060648601526101c4850190611484565b6020850151848203606319016084860152611484565b60408401516001600160a01b031660a484015260608401518382036063190160c4850152611484565b6080830151151560e483015260a083015160070b61010483015260c0830151151561012483015260e08301519060631983820301610144840152815180825260208201916020808360051b8301019401925f915b838310610c755750505050508190604061010081950151805160070b61016485015260018060a01b03602082015116610184850152015160070b6101a48301526001600160401b03610184351660070b60248301526006604483015203813460018060a01b037f0000000000000000000000000000000000000000000000000000000000000000165af1918215610c6a575f905f93610c19575b5060070b60168103610c01575061012c936101843585610184350204851461018435151715610bed576101843561271086820204810311610bed576107476001600160401b03612710876101843502041660070b7f000000000000000000000000000000000000000000000000000000000000000085611735565b610774610752611532565b6001600160401b036127108861018435020461018435031660070b9085611735565b865f525f60205260405f20938785556001600160401b038711610b205761079e60018601546115ef565b601f8111610ba9575b50865f601f8211600114610b3f575f91610b34575b508760011b905f198960031b1c19161760018601555b6001600160401b038211610b205781906107ef60028701546115ef565b601f8111610ad0575b505f90601f8311600114610a63575f92610a58575b50508160011b915f199060031b1c19161760028401555b6003830180546001600160a01b03199081163317909155936004840161ffff61084b611510565b1681549063ffff000061085c611521565b60101b16906601000000000000600160d01b03610877611532565b60301b169265ffffffffffff60d01b16171765ffff0000000060843560201b16171790556005840160018060a01b036108ae611548565b825488169116179055600684016001600160a01b0360e435908116908190036101835781548716179055610104356007850155610124356008850155610144356009850155610164356001600160a01b03811603610183578695867f2963748485bfa9355f742a7df0403d3195c000cbd62a9973895a16f703ba382e61271094600e887fdc00c66624b323ab9355e9f43641a4356213d3b7ff59604457e114ddbdc526ed9a600a60609b0154169861018435600b8301556101a435600c83015560018060a01b0316809917600a82015542600d82015501600160ff1982541617905583604051916020835281602084015260408301375f604085830101526040813395601f80199101168101030190a36040519283526101843560208401526101843502046040820152a2476109ea575b602090604051908152f35b5f80808047335af13d15610a53573d610a02816116c9565b90610a1060405192836115b0565b81525f60203d92013e5b6109df5760405162461bcd60e51b815260206004820152600d60248201526c1c99599d5b990819985a5b1959609a1b6044820152606490fd5b610a1a565b01359050888061080d565b909250600286015f5260205f20905f935b601f1984168510610ab8576001945083601f19811610610a9f575b505050811b016002840155610824565b01355f19600384901b60f8161c19169055888080610a8f565b81810135835560209485019460019093019201610a74565b909150600286015f5260205f20601f840160051c810160208510610b19575b90849392915b601f830160051c82018110610b0b5750506107f8565b5f8155859450600101610af5565b5080610aef565b634e487b7160e01b5f52604160045260245ffd5b9050830135896107bc565b9050600186015f5260205f20905f5b601f198a168110610b91575088601f19811610610b78575b5050600187811b0160018601556107d2565b8401355f1960038a901b60f8161c191690558880610b66565b90916020600181928589013581550193019101610b4e565b600186015f5260205f20601f890160051c810160208a10610be6575b601f830160051c82018110610bdb5750506107a7565b5f8155600101610bc5565b5080610bc5565b634e487b7160e01b5f52601160045260245ffd5b6024906040519063530b5d0d60e01b82526004820152fd5b9250506040823d604011610c62575b81610c35604093836115b0565b81010312610183576020610c4883611727565b920151916001600160a01b038316830361018357876106cc565b3d9150610c28565b6040513d5f823e3d90fd5b91939695509193602080600192601f19858203018652818a5180518352015190604083820152815115156040820152848060a01b038383015116606082015260c0610ce8610cd2604085015160a0608086015260e0850190611484565b6060850151848203603f190160a0860152611484565b926080878060a01b03910151169101529801930193019092889596949293610632565b60405163e6c4247b60e01b8152600490fd5b60e4356001600160a01b0381169250829003610183576001600160a01b0316148961046c565b90915060e4356001600160a01b0381169190829003610183576001600160a01b031614908a610464565b5060e4356001600160a01b038116908190036101835715610436565b5060c4356001600160a01b0381168103610183576001600160a01b03161561042f565b604051636edcc52360e01b8152600490fd5b6040516320dfe2fd60e01b8152600490fd5b60405163e2592aed60e01b8152600490fd5b604051632ef1310560e01b8152600490fd5b34610183575f36600319011261018357602060405161012c8152f35b34610183575f36600319011261018357602060405160168152f35b34610183575f366003190112610183576020600154604051908152f35b34610183576020366003190112610183576004355f525f602052602060ff600e60405f200154166040519015158152f35b34610183576020366003190112610183576004355f610100604051610e9d8161155e565b8281526060602082015260606040820152826060820152604051610ec08161157a565b8381528360208201528360408201528360608201528360808201528360a08201526080820152610eee6115d1565b60a0820152610efb6115d1565b60c082015260e0810183905201525f818152602081905260409020600301546001600160a01b0316156101ab575f525f60205260405f2060ff600e60405192610f438461155e565b80548452610f5360018201611627565b6020850152610f6460028201611627565b60408581019190915260038201546001600160a01b0316606086015251610f8a8161157a565b600482015461ffff8116825261ffff8160101c16602083015261ffff8160201c16604083015260018060a01b039060301c16606082015260018060a01b03600583015416608082015260018060a01b0360068301541660a08201526080850152604051610ff681611595565b60078201548152600882015460208201526009820154604082015260a085015260405161102281611595565b60018060a01b03600a830154168152600b8201546020820152600c820154604082015260c0850152600d81015460e08501520154161515610100820152604051809160208252805160208301526101006110a661109060208401516102406040870152610260860190611484565b6040840151858203601f19016060870152611484565b9160018060a01b036060820151166080850152608081015161ffff81511660a086015261ffff60208201511660c086015261ffff60408201511660e086015260018060a01b036060820151168386015260018060a01b0360808201511661012086015260a0600180821b0391015116610140850152604060a08201518051610160870152602081015161018087015201516101a0850152604060c082015160018060a01b038151166101c087015260208101516101e0870152015161020085015260e0810151610220850152015115156102408301520390f35b34610183576020366003190112610183576004355f525f602052602060018060a01b03600360405f20015416604051908152f35b34610183576020366003190112610183576004355f818152602081905260409020600301546001600160a01b03908116156101ab57815f525f602052600360405f20015416330361019957805f525f60205260ff600e60405f200154161561018757805f525f602052600e60405f200160ff1981541690557fed42fe78cc53602227647438e2d3ae5f8941ecfea7326d0172a68ad350bc7b445f80a2005b346101835760e0366003190112610183576004359060c0366023190112610183575f828152602081905260409020600301546001600160a01b0391908216156114755750815f525f60205280600360405f20015416330361019957815f525f60205260ff600e60405f20015416156101875760243561ffff80821680920361018357604435818116809103610183576112eb90836116e4565b6064359182168092036101835761271091611305916116e4565b03610dac57608435828116918282036101835782158015611461575b801561144d575b610d0b575f9260a43585811680910361018357808214918215611431575b50811561141b575b50610d0b57845f525f60205260405f2092600484019283549263ffff0000611374611510565b60101b169165ffff00000000611388611521565b60201b1693610183576001600160d01b031990941617171760309190911b6601000000000000600160d01b03161790556005810190600690836113c9611532565b16926bffffffffffffffffffffffff60a01b938482541617905501916113ed611548565b16908254161790557f6a6832e461d555d62a4e056912db929bad6f97a0c9ddb75f6238e76d3bd42ff45f80a2005b60c435868116925082900361018357148661134e565b945090505f9360c4359086821680920361018357149087611346565b5060c4358481168091036101835715611328565b5060a4358481168091036101835715611321565b636f2875cd60e01b8152600490fd5b91908251928382525f5b8481106114ae575050825f602080949584010152601f8019910116010190565b60208183018101518483018201520161148e565b9181601f84011215610183578235916001600160401b038311610183576020838186019501011161018357565b90608060031983011261018357606060043592602319011261018357602490565b60443561ffff811681036101835790565b60643561ffff811681036101835790565b60a4356001600160a01b03811681036101835790565b60c4356001600160a01b03811681036101835790565b61012081019081106001600160401b03821117610b2057604052565b60c081019081106001600160401b03821117610b2057604052565b606081019081106001600160401b03821117610b2057604052565b90601f801991011681019081106001600160401b03821117610b2057604052565b604051906115de82611595565b5f6040838281528260208201520152565b90600182811c9216801561161d575b602083101461160957565b634e487b7160e01b5f52602260045260245ffd5b91607f16916115fe565b9060405191825f8254611639816115ef565b908184526020946001916001811690815f146116a75750600114611669575b505050611667925003836115b0565b565b5f90815285812095935091905b81831061168f57505061166793508201015f8080611658565b85548884018501529485019487945091830191611676565b9250505061166794925060ff191682840152151560051b8201015f8080611658565b6001600160401b038111610b2057601f01601f191660200190565b91908201809211610bed57565b9291926116fd826116c9565b9161170b60405193846115b0565b829481845281830111610183578281602093845f960137010152565b51908160070b820361018357565b909160070b801561180f5760405163eca3691760e01b81526001600160a01b03928316600482015230602482015292821660448401526064830152602090829060849082905f907f0000000000000000000000000000000000000000000000000000000000000000165af1908115610c6a575f916117d5575b5060070b601681036117bd5750565b6024906040519063dfb08d9d60e01b82526004820152fd5b90506020813d602011611807575b816117f0602093836115b0565b810103126101835761180190611727565b5f6117ae565b3d91506117e3565b50505056fea264697066735822122050adf0a017e2b7bc385c9efb91a9cec74e1d4430948017cc2249b50a44de5dc464736f6c63430008180033","opcodes":"PUSH1 0xC0 CALLVALUE PUSH2 0x9D JUMPI PUSH1 0x1F PUSH2 0x1914 CODESIZE DUP2 SWAP1 SUB SWAP2 DUP3 ADD PUSH1 0x1F NOT AND DUP4 ADD SWAP2 PUSH1 0x1 PUSH1 0x1 PUSH1 0x40 SHL SUB DUP4 GT DUP5 DUP5 LT OR PUSH2 0xA1 JUMPI DUP1 DUP5 SWAP3 PUSH1 0x40 SWAP5 DUP6 MSTORE DUP4 CODECOPY DUP2 ADD SUB SLT PUSH2 0x9D JUMPI PUSH2 0x52 PUSH1 0x20 PUSH2 0x4B DUP4 PUSH2 0xB5 JUMP JUMPDEST SWAP3 ADD PUSH2 0xB5 JUMP JUMPDEST PUSH1 0x1 DUP1 SSTORE PUSH1 0x1 PUSH1 0x1 PUSH1 0xA0 SHL SUB SWAP1 SWAP2 AND PUSH1 0x80 MSTORE PUSH1 0xA0 MSTORE PUSH1 0x40 MLOAD PUSH2 0x184A SWAP1 DUP2 PUSH2 0xCA DUP3 CODECOPY PUSH1 0x80 MLOAD DUP2 DUP2 DUP2 PUSH2 0x1D2 ADD MSTORE DUP2 DUP2 PUSH2 0x69A ADD MSTORE PUSH2 0x177E ADD MSTORE PUSH1 0xA0 MLOAD DUP2 DUP2 DUP2 PUSH2 0x216 ADD MSTORE PUSH2 0x722 ADD MSTORE RETURN JUMPDEST PUSH0 DUP1 REVERT JUMPDEST PUSH4 0x4E487B71 PUSH1 0xE0 SHL PUSH0 MSTORE PUSH1 0x41 PUSH1 0x4 MSTORE PUSH1 0x24 PUSH0 REVERT JUMPDEST MLOAD SWAP1 PUSH1 0x1 PUSH1 0x1 PUSH1 0xA0 SHL SUB DUP3 AND DUP3 SUB PUSH2 0x9D JUMPI JUMP INVALID PUSH1 0x80 DUP1 PUSH1 0x40 MSTORE PUSH1 0x4 CALLDATASIZE LT ISZERO PUSH2 0x1C JUMPI JUMPDEST POP CALLDATASIZE ISZERO PUSH2 0x1A JUMPI PUSH0 DUP1 REVERT JUMPDEST STOP JUMPDEST PUSH0 CALLDATALOAD PUSH1 0xE0 SHR SWAP1 DUP2 PUSH4 0x11642020 EQ PUSH2 0x1252 JUMPI POP DUP1 PUSH4 0x4362E30C EQ PUSH2 0x11B4 JUMPI DUP1 PUSH4 0x589A1743 EQ PUSH2 0x1180 JUMPI DUP1 PUSH4 0x6B6E2411 EQ PUSH2 0xE79 JUMPI DUP1 PUSH4 0x82AFD23B EQ PUSH2 0xE48 JUMPI DUP1 PUSH4 0xB65B6576 EQ PUSH2 0xE2B JUMPI DUP1 PUSH4 0xBD9FA86A EQ PUSH2 0xE10 JUMPI DUP1 PUSH4 0xC8993E8C EQ PUSH2 0xDF4 JUMPI DUP1 PUSH4 0xDEE4E43B EQ PUSH2 0x2EC JUMPI DUP1 PUSH4 0xE556887A EQ PUSH2 0x245 JUMPI DUP1 PUSH4 0xF449E335 EQ PUSH2 0x201 JUMPI DUP1 PUSH4 0xF453A53E EQ PUSH2 0x1BD JUMPI PUSH4 0xF830DB06 EQ PUSH2 0xB7 JUMPI PUSH0 PUSH2 0xF JUMP JUMPDEST CALLVALUE PUSH2 0x183 JUMPI PUSH2 0xC5 CALLDATASIZE PUSH2 0x14EF JUMP JUMPDEST PUSH0 DUP3 DUP2 MSTORE PUSH1 0x20 DUP2 SWAP1 MSTORE PUSH1 0x40 SWAP1 KECCAK256 PUSH1 0x3 ADD SLOAD PUSH1 0x1 PUSH1 0x1 PUSH1 0xA0 SHL SUB SWAP2 SWAP1 DUP3 AND ISZERO PUSH2 0x1AB JUMPI DUP3 PUSH0 MSTORE PUSH0 PUSH1 0x20 MSTORE DUP2 PUSH1 0x3 PUSH1 0x40 PUSH0 KECCAK256 ADD SLOAD AND CALLER SUB PUSH2 0x199 JUMPI DUP3 PUSH0 MSTORE PUSH0 PUSH1 0x20 MSTORE PUSH1 0xFF PUSH1 0xE PUSH1 0x40 PUSH0 KECCAK256 ADD SLOAD AND ISZERO PUSH2 0x187 JUMPI DUP3 PUSH0 MSTORE PUSH0 PUSH1 0x20 MSTORE PUSH1 0x40 PUSH0 KECCAK256 SWAP2 PUSH1 0xA DUP4 ADD SWAP2 DUP1 CALLDATALOAD SWAP2 DUP3 AND DUP1 SWAP3 SUB PUSH2 0x183 JUMPI PUSH1 0xC SWAP3 PUSH1 0x40 SWAP3 PUSH12 0xFFFFFFFFFFFFFFFFFFFFFFFF PUSH1 0xA0 SHL DUP3 SLOAD AND OR SWAP1 SSTORE PUSH1 0x20 DUP2 ADD CALLDATALOAD PUSH1 0xB DUP6 ADD SSTORE ADD CALLDATALOAD SWAP2 ADD SSTORE PUSH32 0x39CB946C4ABA4A9442A0E861ABDAD3B6A4EEBA112D6A0299411D7D0B83E445CC PUSH0 DUP1 LOG2 STOP JUMPDEST PUSH0 DUP1 REVERT JUMPDEST PUSH1 0x40 MLOAD PUSH4 0x5E58DBB PUSH1 0xE1 SHL DUP2 MSTORE PUSH1 0x4 SWAP1 REVERT JUMPDEST PUSH1 0x40 MLOAD PUSH4 0x93687C0B PUSH1 0xE0 SHL DUP2 MSTORE PUSH1 0x4 SWAP1 REVERT JUMPDEST PUSH1 0x40 MLOAD PUSH4 0x6F2875CD PUSH1 0xE0 SHL DUP2 MSTORE PUSH1 0x4 SWAP1 REVERT JUMPDEST CALLVALUE PUSH2 0x183 JUMPI PUSH0 CALLDATASIZE PUSH1 0x3 NOT ADD SLT PUSH2 0x183 JUMPI PUSH1 0x40 MLOAD PUSH32 0x0 PUSH1 0x1 PUSH1 0x1 PUSH1 0xA0 SHL SUB AND DUP2 MSTORE PUSH1 0x20 SWAP1 RETURN JUMPDEST CALLVALUE PUSH2 0x183 JUMPI PUSH0 CALLDATASIZE PUSH1 0x3 NOT ADD SLT PUSH2 0x183 JUMPI PUSH1 0x40 MLOAD PUSH32 0x0 PUSH1 0x1 PUSH1 0x1 PUSH1 0xA0 SHL SUB AND DUP2 MSTORE PUSH1 0x20 SWAP1 RETURN JUMPDEST CALLVALUE PUSH2 0x183 JUMPI PUSH2 0x253 CALLDATASIZE PUSH2 0x14EF JUMP JUMPDEST PUSH0 DUP3 DUP2 MSTORE PUSH1 0x20 DUP2 SWAP1 MSTORE PUSH1 0x40 SWAP1 KECCAK256 PUSH1 0x3 ADD SLOAD PUSH1 0x1 PUSH1 0x1 PUSH1 0xA0 SHL SUB SWAP1 DUP2 AND ISZERO PUSH2 0x1AB JUMPI DUP3 PUSH0 MSTORE PUSH0 PUSH1 0x20 MSTORE PUSH1 0x3 PUSH1 0x40 PUSH0 KECCAK256 ADD SLOAD AND CALLER SUB PUSH2 0x199 JUMPI DUP2 PUSH0 MSTORE PUSH0 PUSH1 0x20 MSTORE PUSH1 0xFF PUSH1 0xE PUSH1 0x40 PUSH0 KECCAK256 ADD SLOAD AND ISZERO PUSH2 0x187 JUMPI DUP2 PUSH0 MSTORE PUSH0 PUSH1 0x20 MSTORE PUSH1 0x9 PUSH1 0x40 DUP1 PUSH0 KECCAK256 SWAP3 DUP1 CALLDATALOAD PUSH1 0x7 DUP6 ADD SSTORE PUSH1 0x20 DUP2 ADD CALLDATALOAD PUSH1 0x8 DUP6 ADD SSTORE ADD CALLDATALOAD SWAP2 ADD SSTORE PUSH32 0x942CF7ABE001C0241E54CB1CA85F0B7DEB7A7C9531AD59F48B29B125C5CFE541 PUSH0 DUP1 LOG2 STOP JUMPDEST PUSH2 0x200 CALLDATASIZE PUSH1 0x3 NOT ADD SLT PUSH2 0x183 JUMPI PUSH1 0x4 CALLDATALOAD PUSH1 0x1 PUSH1 0x1 PUSH1 0x40 SHL SUB DUP2 GT PUSH2 0x183 JUMPI PUSH2 0x318 SWAP1 CALLDATASIZE SWAP1 PUSH1 0x4 ADD PUSH2 0x14C2 JUMP JUMPDEST PUSH1 0x24 CALLDATALOAD PUSH1 0x1 PUSH1 0x1 PUSH1 0x40 SHL SUB DUP2 GT PUSH2 0x183 JUMPI PUSH2 0x337 SWAP1 CALLDATASIZE SWAP1 PUSH1 0x4 ADD PUSH2 0x14C2 JUMP JUMPDEST SWAP1 PUSH1 0xC0 CALLDATASIZE PUSH1 0x43 NOT ADD SLT PUSH2 0x183 JUMPI PUSH1 0x60 CALLDATASIZE PUSH2 0x103 NOT ADD SLT PUSH2 0x183 JUMPI PUSH1 0x60 CALLDATASIZE PUSH2 0x163 NOT ADD SLT PUSH2 0x183 JUMPI PUSH2 0x1C4 CALLDATALOAD PUSH1 0x1 PUSH1 0x1 PUSH1 0x40 SHL SUB DUP2 GT PUSH2 0x183 JUMPI PUSH2 0x37E SWAP1 CALLDATASIZE SWAP1 PUSH1 0x4 ADD PUSH2 0x14C2 JUMP JUMPDEST SWAP1 SWAP5 PUSH2 0x1E4 CALLDATALOAD PUSH1 0x1 PUSH1 0x1 PUSH1 0x40 SHL SUB DUP2 GT PUSH2 0x183 JUMPI PUSH2 0x3A0 SWAP1 CALLDATASIZE SWAP1 PUSH1 0x4 ADD PUSH2 0x14C2 JUMP JUMPDEST SWAP7 SWAP1 DUP7 ISZERO PUSH2 0xDE2 JUMPI DUP4 ISZERO PUSH2 0xDD0 JUMPI PUSH8 0x7FFFFFFFFFFFFFFF PUSH2 0x184 CALLDATALOAD GT PUSH2 0xDBE JUMPI PUSH1 0x44 CALLDATALOAD PUSH2 0xFFFF DUP2 AND DUP1 SWAP2 SUB PUSH2 0x183 JUMPI PUSH1 0x64 CALLDATALOAD PUSH2 0xFFFF DUP2 AND DUP1 SWAP2 SUB PUSH2 0x183 JUMPI PUSH2 0x3E7 SWAP2 PUSH2 0x16E4 JUMP JUMPDEST PUSH2 0xFFFF PUSH1 0x84 CALLDATALOAD AND SWAP1 DUP2 PUSH1 0x84 CALLDATALOAD SUB PUSH2 0x183 JUMPI PUSH2 0x2710 SWAP2 PUSH2 0x405 SWAP2 PUSH2 0x16E4 JUMP JUMPDEST SUB PUSH2 0xDAC JUMPI PUSH1 0xA4 CALLDATALOAD PUSH1 0x1 PUSH1 0x1 PUSH1 0xA0 SHL SUB DUP2 AND DUP2 SUB PUSH2 0x183 JUMPI PUSH1 0x1 PUSH1 0x1 PUSH1 0xA0 SHL SUB DUP2 AND ISZERO DUP1 ISZERO PUSH2 0xD89 JUMPI JUMPDEST DUP1 ISZERO PUSH2 0xD6D JUMPI JUMPDEST PUSH2 0xD0B JUMPI PUSH1 0xC4 CALLDATALOAD PUSH1 0x1 PUSH1 0x1 PUSH1 0xA0 SHL SUB DUP2 AND DUP2 SUB PUSH2 0x183 JUMPI PUSH1 0x1 PUSH1 0x1 PUSH1 0xA0 SHL SUB DUP3 DUP2 AND SWAP1 DUP3 AND EQ SWAP2 DUP3 ISZERO PUSH2 0xD43 JUMPI JUMPDEST POP DUP2 ISZERO PUSH2 0xD1D JUMPI JUMPDEST POP PUSH2 0xD0B JUMPI PUSH1 0x1 SLOAD SWAP8 PUSH0 NOT DUP10 EQ PUSH2 0xBED JUMPI PUSH1 0x1 DUP10 ADD PUSH1 0x1 SSTORE PUSH1 0x40 MLOAD SWAP2 DUP3 PUSH1 0x20 DUP2 ADD LT PUSH1 0x1 PUSH1 0x1 PUSH1 0x40 SHL SUB PUSH1 0x20 DUP6 ADD GT OR PUSH2 0xB20 JUMPI PUSH2 0x4ED SWAP2 PUSH1 0x20 DUP5 ADD PUSH1 0x40 MSTORE PUSH0 DUP5 MSTORE PUSH2 0x4E4 PUSH1 0x40 MLOAD SWAP6 PUSH2 0x4BE DUP8 PUSH2 0x1595 JUMP JUMPDEST PUSH0 DUP8 MSTORE ADDRESS PUSH1 0x20 DUP9 ADD MSTORE PUSH3 0x76A700 PUSH1 0x40 DUP9 ADD MSTORE PUSH1 0x40 MLOAD SWAP9 PUSH2 0x4DD DUP11 PUSH2 0x155E JUMP JUMPDEST CALLDATASIZE SWAP2 PUSH2 0x16F1 JUMP JUMPDEST DUP8 MSTORE CALLDATASIZE SWAP2 PUSH2 0x16F1 JUMP JUMPDEST PUSH1 0x20 DUP6 ADD MSTORE ADDRESS PUSH1 0x40 DUP6 ADD MSTORE PUSH1 0x40 MLOAD DUP1 PUSH1 0x40 DUP2 ADD LT PUSH1 0x1 PUSH1 0x1 PUSH1 0x40 SHL SUB PUSH1 0x40 DUP4 ADD GT OR PUSH2 0xB20 JUMPI PUSH1 0x40 DUP2 ADD PUSH1 0x40 MSTORE PUSH1 0x12 DUP2 MSTORE PUSH18 0x21B7B9383AB990283AB639B2902A37B5B2B7 PUSH1 0x71 SHL PUSH1 0x20 DUP3 ADD MSTORE PUSH1 0x60 DUP6 ADD MSTORE PUSH1 0x1 PUSH1 0x80 DUP6 ADD MSTORE PUSH1 0x1 PUSH1 0x1 PUSH1 0x40 SHL SUB PUSH2 0x184 CALLDATALOAD AND PUSH1 0x7 SIGNEXTEND PUSH1 0xA0 DUP6 ADD MSTORE PUSH0 PUSH1 0xC0 DUP6 ADD MSTORE PUSH1 0xE0 DUP5 ADD MSTORE PUSH2 0x100 DUP4 ADD MSTORE PUSH1 0x40 MLOAD SWAP2 PUSH4 0xFB65BF3 PUSH1 0xE0 SHL DUP4 MSTORE PUSH1 0x60 PUSH1 0x4 DUP5 ADD MSTORE DUP3 PUSH2 0x5DE PUSH2 0x5B5 PUSH2 0x59F DUP5 MLOAD PUSH2 0x160 PUSH1 0x64 DUP7 ADD MSTORE PUSH2 0x1C4 DUP6 ADD SWAP1 PUSH2 0x1484 JUMP JUMPDEST PUSH1 0x20 DUP6 ADD MLOAD DUP5 DUP3 SUB PUSH1 0x63 NOT ADD PUSH1 0x84 DUP7 ADD MSTORE PUSH2 0x1484 JUMP JUMPDEST PUSH1 0x40 DUP5 ADD MLOAD PUSH1 0x1 PUSH1 0x1 PUSH1 0xA0 SHL SUB AND PUSH1 0xA4 DUP5 ADD MSTORE PUSH1 0x60 DUP5 ADD MLOAD DUP4 DUP3 SUB PUSH1 0x63 NOT ADD PUSH1 0xC4 DUP6 ADD MSTORE PUSH2 0x1484 JUMP JUMPDEST PUSH1 0x80 DUP4 ADD MLOAD ISZERO ISZERO PUSH1 0xE4 DUP4 ADD MSTORE PUSH1 0xA0 DUP4 ADD MLOAD PUSH1 0x7 SIGNEXTEND PUSH2 0x104 DUP4 ADD MSTORE PUSH1 0xC0 DUP4 ADD MLOAD ISZERO ISZERO PUSH2 0x124 DUP4 ADD MSTORE PUSH1 0xE0 DUP4 ADD MLOAD SWAP1 PUSH1 0x63 NOT DUP4 DUP3 SUB ADD PUSH2 0x144 DUP5 ADD MSTORE DUP2 MLOAD DUP1 DUP3 MSTORE PUSH1 0x20 DUP3 ADD SWAP2 PUSH1 0x20 DUP1 DUP4 PUSH1 0x5 SHL DUP4 ADD ADD SWAP5 ADD SWAP3 PUSH0 SWAP2 JUMPDEST DUP4 DUP4 LT PUSH2 0xC75 JUMPI POP POP POP POP POP DUP2 SWAP1 PUSH1 0x40 PUSH2 0x100 DUP2 SWAP6 ADD MLOAD DUP1 MLOAD PUSH1 0x7 SIGNEXTEND PUSH2 0x164 DUP6 ADD MSTORE PUSH1 0x1 DUP1 PUSH1 0xA0 SHL SUB PUSH1 0x20 DUP3 ADD MLOAD AND PUSH2 0x184 DUP6 ADD MSTORE ADD MLOAD PUSH1 0x7 SIGNEXTEND PUSH2 0x1A4 DUP4 ADD MSTORE PUSH1 0x1 PUSH1 0x1 PUSH1 0x40 SHL SUB PUSH2 0x184 CALLDATALOAD AND PUSH1 0x7 SIGNEXTEND PUSH1 0x24 DUP4 ADD MSTORE PUSH1 0x6 PUSH1 0x44 DUP4 ADD MSTORE SUB DUP2 CALLVALUE PUSH1 0x1 DUP1 PUSH1 0xA0 SHL SUB PUSH32 0x0 AND GAS CALL SWAP2 DUP3 ISZERO PUSH2 0xC6A JUMPI PUSH0 SWAP1 PUSH0 SWAP4 PUSH2 0xC19 JUMPI JUMPDEST POP PUSH1 0x7 SIGNEXTEND PUSH1 0x16 DUP2 SUB PUSH2 0xC01 JUMPI POP PUSH2 0x12C SWAP4 PUSH2 0x184 CALLDATALOAD DUP6 PUSH2 0x184 CALLDATALOAD MUL DIV DUP6 EQ PUSH2 0x184 CALLDATALOAD ISZERO OR ISZERO PUSH2 0xBED JUMPI PUSH2 0x184 CALLDATALOAD PUSH2 0x2710 DUP7 DUP3 MUL DIV DUP2 SUB GT PUSH2 0xBED JUMPI PUSH2 0x747 PUSH1 0x1 PUSH1 0x1 PUSH1 0x40 SHL SUB PUSH2 0x2710 DUP8 PUSH2 0x184 CALLDATALOAD MUL DIV AND PUSH1 0x7 SIGNEXTEND PUSH32 0x0 DUP6 PUSH2 0x1735 JUMP JUMPDEST PUSH2 0x774 PUSH2 0x752 PUSH2 0x1532 JUMP JUMPDEST PUSH1 0x1 PUSH1 0x1 PUSH1 0x40 SHL SUB PUSH2 0x2710 DUP9 PUSH2 0x184 CALLDATALOAD MUL DIV PUSH2 0x184 CALLDATALOAD SUB AND PUSH1 0x7 SIGNEXTEND SWAP1 DUP6 PUSH2 0x1735 JUMP JUMPDEST DUP7 PUSH0 MSTORE PUSH0 PUSH1 0x20 MSTORE PUSH1 0x40 PUSH0 KECCAK256 SWAP4 DUP8 DUP6 SSTORE PUSH1 0x1 PUSH1 0x1 PUSH1 0x40 SHL SUB DUP8 GT PUSH2 0xB20 JUMPI PUSH2 0x79E PUSH1 0x1 DUP7 ADD SLOAD PUSH2 0x15EF JUMP JUMPDEST PUSH1 0x1F DUP2 GT PUSH2 0xBA9 JUMPI JUMPDEST POP DUP7 PUSH0 PUSH1 0x1F DUP3 GT PUSH1 0x1 EQ PUSH2 0xB3F JUMPI PUSH0 SWAP2 PUSH2 0xB34 JUMPI JUMPDEST POP DUP8 PUSH1 0x1 SHL SWAP1 PUSH0 NOT DUP10 PUSH1 0x3 SHL SHR NOT AND OR PUSH1 0x1 DUP7 ADD SSTORE JUMPDEST PUSH1 0x1 PUSH1 0x1 PUSH1 0x40 SHL SUB DUP3 GT PUSH2 0xB20 JUMPI DUP2 SWAP1 PUSH2 0x7EF PUSH1 0x2 DUP8 ADD SLOAD PUSH2 0x15EF JUMP JUMPDEST PUSH1 0x1F DUP2 GT PUSH2 0xAD0 JUMPI JUMPDEST POP PUSH0 SWAP1 PUSH1 0x1F DUP4 GT PUSH1 0x1 EQ PUSH2 0xA63 JUMPI PUSH0 SWAP3 PUSH2 0xA58 JUMPI JUMPDEST POP POP DUP2 PUSH1 0x1 SHL SWAP2 PUSH0 NOT SWAP1 PUSH1 0x3 SHL SHR NOT AND OR PUSH1 0x2 DUP5 ADD SSTORE JUMPDEST PUSH1 0x3 DUP4 ADD DUP1 SLOAD PUSH1 0x1 PUSH1 0x1 PUSH1 0xA0 SHL SUB NOT SWAP1 DUP2 AND CALLER OR SWAP1 SWAP2 SSTORE SWAP4 PUSH1 0x4 DUP5 ADD PUSH2 0xFFFF PUSH2 0x84B PUSH2 0x1510 JUMP JUMPDEST AND DUP2 SLOAD SWAP1 PUSH4 0xFFFF0000 PUSH2 0x85C PUSH2 0x1521 JUMP JUMPDEST PUSH1 0x10 SHL AND SWAP1 PUSH7 0x1000000000000 PUSH1 0x1 PUSH1 0xD0 SHL SUB PUSH2 0x877 PUSH2 0x1532 JUMP JUMPDEST PUSH1 0x30 SHL AND SWAP3 PUSH6 0xFFFFFFFFFFFF PUSH1 0xD0 SHL AND OR OR PUSH6 0xFFFF00000000 PUSH1 0x84 CALLDATALOAD PUSH1 0x20 SHL AND OR OR SWAP1 SSTORE PUSH1 0x5 DUP5 ADD PUSH1 0x1 DUP1 PUSH1 0xA0 SHL SUB PUSH2 0x8AE PUSH2 0x1548 JUMP JUMPDEST DUP3 SLOAD DUP9 AND SWAP2 AND OR SWAP1 SSTORE PUSH1 0x6 DUP5 ADD PUSH1 0x1 PUSH1 0x1 PUSH1 0xA0 SHL SUB PUSH1 0xE4 CALLDATALOAD SWAP1 DUP2 AND SWAP1 DUP2 SWAP1 SUB PUSH2 0x183 JUMPI DUP2 SLOAD DUP8 AND OR SWAP1 SSTORE PUSH2 0x104 CALLDATALOAD PUSH1 0x7 DUP6 ADD SSTORE PUSH2 0x124 CALLDATALOAD PUSH1 0x8 DUP6 ADD SSTORE PUSH2 0x144 CALLDATALOAD PUSH1 0x9 DUP6 ADD SSTORE PUSH2 0x164 CALLDATALOAD PUSH1 0x1 PUSH1 0x1 PUSH1 0xA0 SHL SUB DUP2 AND SUB PUSH2 0x183 JUMPI DUP7 SWAP6 DUP7 PUSH32 0x2963748485BFA9355F742A7DF0403D3195C000CBD62A9973895A16F703BA382E PUSH2 0x2710 SWAP5 PUSH1 0xE DUP9 PUSH32 0xDC00C66624B323AB9355E9F43641A4356213D3B7FF59604457E114DDBDC526ED SWAP11 PUSH1 0xA PUSH1 0x60 SWAP12 ADD SLOAD AND SWAP9 PUSH2 0x184 CALLDATALOAD PUSH1 0xB DUP4 ADD SSTORE PUSH2 0x1A4 CALLDATALOAD PUSH1 0xC DUP4 ADD SSTORE PUSH1 0x1 DUP1 PUSH1 0xA0 SHL SUB AND DUP1 SWAP10 OR PUSH1 0xA DUP3 ADD SSTORE TIMESTAMP PUSH1 0xD DUP3 ADD SSTORE ADD PUSH1 0x1 PUSH1 0xFF NOT DUP3 SLOAD AND OR SWAP1 SSTORE DUP4 PUSH1 0x40 MLOAD SWAP2 PUSH1 0x20 DUP4 MSTORE DUP2 PUSH1 0x20 DUP5 ADD MSTORE PUSH1 0x40 DUP4 ADD CALLDATACOPY PUSH0 PUSH1 0x40 DUP6 DUP4 ADD ADD MSTORE PUSH1 0x40 DUP2 CALLER SWAP6 PUSH1 0x1F DUP1 NOT SWAP2 ADD AND DUP2 ADD SUB ADD SWAP1 LOG3 PUSH1 0x40 MLOAD SWAP3 DUP4 MSTORE PUSH2 0x184 CALLDATALOAD PUSH1 0x20 DUP5 ADD MSTORE PUSH2 0x184 CALLDATALOAD MUL DIV PUSH1 0x40 DUP3 ADD MSTORE LOG2 SELFBALANCE PUSH2 0x9EA JUMPI JUMPDEST PUSH1 0x20 SWAP1 PUSH1 0x40 MLOAD SWAP1 DUP2 MSTORE RETURN JUMPDEST PUSH0 DUP1 DUP1 DUP1 SELFBALANCE CALLER GAS CALL RETURNDATASIZE ISZERO PUSH2 0xA53 JUMPI RETURNDATASIZE PUSH2 0xA02 DUP2 PUSH2 0x16C9 JUMP JUMPDEST SWAP1 PUSH2 0xA10 PUSH1 0x40 MLOAD SWAP3 DUP4 PUSH2 0x15B0 JUMP JUMPDEST DUP2 MSTORE PUSH0 PUSH1 0x20 RETURNDATASIZE SWAP3 ADD RETURNDATACOPY JUMPDEST PUSH2 0x9DF JUMPI PUSH1 0x40 MLOAD PUSH3 0x461BCD PUSH1 0xE5 SHL DUP2 MSTORE PUSH1 0x20 PUSH1 0x4 DUP3 ADD MSTORE PUSH1 0xD PUSH1 0x24 DUP3 ADD MSTORE PUSH13 0x1C99599D5B990819985A5B1959 PUSH1 0x9A SHL PUSH1 0x44 DUP3 ADD MSTORE PUSH1 0x64 SWAP1 REVERT JUMPDEST PUSH2 0xA1A JUMP JUMPDEST ADD CALLDATALOAD SWAP1 POP DUP9 DUP1 PUSH2 0x80D JUMP JUMPDEST SWAP1 SWAP3 POP PUSH1 0x2 DUP7 ADD PUSH0 MSTORE PUSH1 0x20 PUSH0 KECCAK256 SWAP1 PUSH0 SWAP4 JUMPDEST PUSH1 0x1F NOT DUP5 AND DUP6 LT PUSH2 0xAB8 JUMPI PUSH1 0x1 SWAP5 POP DUP4 PUSH1 0x1F NOT DUP2 AND LT PUSH2 0xA9F JUMPI JUMPDEST POP POP POP DUP2 SHL ADD PUSH1 0x2 DUP5 ADD SSTORE PUSH2 0x824 JUMP JUMPDEST ADD CALLDATALOAD PUSH0 NOT PUSH1 0x3 DUP5 SWAP1 SHL PUSH1 0xF8 AND SHR NOT AND SWAP1 SSTORE DUP9 DUP1 DUP1 PUSH2 0xA8F JUMP JUMPDEST DUP2 DUP2 ADD CALLDATALOAD DUP4 SSTORE PUSH1 0x20 SWAP5 DUP6 ADD SWAP5 PUSH1 0x1 SWAP1 SWAP4 ADD SWAP3 ADD PUSH2 0xA74 JUMP JUMPDEST SWAP1 SWAP2 POP PUSH1 0x2 DUP7 ADD PUSH0 MSTORE PUSH1 0x20 PUSH0 KECCAK256 PUSH1 0x1F DUP5 ADD PUSH1 0x5 SHR DUP2 ADD PUSH1 0x20 DUP6 LT PUSH2 0xB19 JUMPI JUMPDEST SWAP1 DUP5 SWAP4 SWAP3 SWAP2 JUMPDEST PUSH1 0x1F DUP4 ADD PUSH1 0x5 SHR DUP3 ADD DUP2 LT PUSH2 0xB0B JUMPI POP POP PUSH2 0x7F8 JUMP JUMPDEST PUSH0 DUP2 SSTORE DUP6 SWAP5 POP PUSH1 0x1 ADD PUSH2 0xAF5 JUMP JUMPDEST POP DUP1 PUSH2 0xAEF JUMP JUMPDEST PUSH4 0x4E487B71 PUSH1 0xE0 SHL PUSH0 MSTORE PUSH1 0x41 PUSH1 0x4 MSTORE PUSH1 0x24 PUSH0 REVERT JUMPDEST SWAP1 POP DUP4 ADD CALLDATALOAD DUP10 PUSH2 0x7BC JUMP JUMPDEST SWAP1 POP PUSH1 0x1 DUP7 ADD PUSH0 MSTORE PUSH1 0x20 PUSH0 KECCAK256 SWAP1 PUSH0 JUMPDEST PUSH1 0x1F NOT DUP11 AND DUP2 LT PUSH2 0xB91 JUMPI POP DUP9 PUSH1 0x1F NOT DUP2 AND LT PUSH2 0xB78 JUMPI JUMPDEST POP POP PUSH1 0x1 DUP8 DUP2 SHL ADD PUSH1 0x1 DUP7 ADD SSTORE PUSH2 0x7D2 JUMP JUMPDEST DUP5 ADD CALLDATALOAD PUSH0 NOT PUSH1 0x3 DUP11 SWAP1 SHL PUSH1 0xF8 AND SHR NOT AND SWAP1 SSTORE DUP9 DUP1 PUSH2 0xB66 JUMP JUMPDEST SWAP1 SWAP2 PUSH1 0x20 PUSH1 0x1 DUP2 SWAP3 DUP6 DUP10 ADD CALLDATALOAD DUP2 SSTORE ADD SWAP4 ADD SWAP2 ADD PUSH2 0xB4E JUMP JUMPDEST PUSH1 0x1 DUP7 ADD PUSH0 MSTORE PUSH1 0x20 PUSH0 KECCAK256 PUSH1 0x1F DUP10 ADD PUSH1 0x5 SHR DUP2 ADD PUSH1 0x20 DUP11 LT PUSH2 0xBE6 JUMPI JUMPDEST PUSH1 0x1F DUP4 ADD PUSH1 0x5 SHR DUP3 ADD DUP2 LT PUSH2 0xBDB JUMPI POP POP PUSH2 0x7A7 JUMP JUMPDEST PUSH0 DUP2 SSTORE PUSH1 0x1 ADD PUSH2 0xBC5 JUMP JUMPDEST POP DUP1 PUSH2 0xBC5 JUMP JUMPDEST PUSH4 0x4E487B71 PUSH1 0xE0 SHL PUSH0 MSTORE PUSH1 0x11 PUSH1 0x4 MSTORE PUSH1 0x24 PUSH0 REVERT JUMPDEST PUSH1 0x24 SWAP1 PUSH1 0x40 MLOAD SWAP1 PUSH4 0x530B5D0D PUSH1 0xE0 SHL DUP3 MSTORE PUSH1 0x4 DUP3 ADD MSTORE REVERT JUMPDEST SWAP3 POP POP PUSH1 0x40 DUP3 RETURNDATASIZE PUSH1 0x40 GT PUSH2 0xC62 JUMPI JUMPDEST DUP2 PUSH2 0xC35 PUSH1 0x40 SWAP4 DUP4 PUSH2 0x15B0 JUMP JUMPDEST DUP2 ADD SUB SLT PUSH2 0x183 JUMPI PUSH1 0x20 PUSH2 0xC48 DUP4 PUSH2 0x1727 JUMP JUMPDEST SWAP3 ADD MLOAD SWAP2 PUSH1 0x1 PUSH1 0x1 PUSH1 0xA0 SHL SUB DUP4 AND DUP4 SUB PUSH2 0x183 JUMPI DUP8 PUSH2 0x6CC JUMP JUMPDEST RETURNDATASIZE SWAP2 POP PUSH2 0xC28 JUMP JUMPDEST PUSH1 0x40 MLOAD RETURNDATASIZE PUSH0 DUP3 RETURNDATACOPY RETURNDATASIZE SWAP1 REVERT JUMPDEST SWAP2 SWAP4 SWAP7 SWAP6 POP SWAP2 SWAP4 PUSH1 0x20 DUP1 PUSH1 0x1 SWAP3 PUSH1 0x1F NOT DUP6 DUP3 SUB ADD DUP7 MSTORE DUP2 DUP11 MLOAD DUP1 MLOAD DUP4 MSTORE ADD MLOAD SWAP1 PUSH1 0x40 DUP4 DUP3 ADD MSTORE DUP2 MLOAD ISZERO ISZERO PUSH1 0x40 DUP3 ADD MSTORE DUP5 DUP1 PUSH1 0xA0 SHL SUB DUP4 DUP4 ADD MLOAD AND PUSH1 0x60 DUP3 ADD MSTORE PUSH1 0xC0 PUSH2 0xCE8 PUSH2 0xCD2 PUSH1 0x40 DUP6 ADD MLOAD PUSH1 0xA0 PUSH1 0x80 DUP7 ADD MSTORE PUSH1 0xE0 DUP6 ADD SWAP1 PUSH2 0x1484 JUMP JUMPDEST PUSH1 0x60 DUP6 ADD MLOAD DUP5 DUP3 SUB PUSH1 0x3F NOT ADD PUSH1 0xA0 DUP7 ADD MSTORE PUSH2 0x1484 JUMP JUMPDEST SWAP3 PUSH1 0x80 DUP8 DUP1 PUSH1 0xA0 SHL SUB SWAP2 ADD MLOAD AND SWAP2 ADD MSTORE SWAP9 ADD SWAP4 ADD SWAP4 ADD SWAP1 SWAP3 DUP9 SWAP6 SWAP7 SWAP5 SWAP3 SWAP4 PUSH2 0x632 JUMP JUMPDEST PUSH1 0x40 MLOAD PUSH4 0xE6C4247B PUSH1 0xE0 SHL DUP2 MSTORE PUSH1 0x4 SWAP1 REVERT JUMPDEST PUSH1 0xE4 CALLDATALOAD PUSH1 0x1 PUSH1 0x1 PUSH1 0xA0 SHL SUB DUP2 AND SWAP3 POP DUP3 SWAP1 SUB PUSH2 0x183 JUMPI PUSH1 0x1 PUSH1 0x1 PUSH1 0xA0 SHL SUB AND EQ DUP10 PUSH2 0x46C JUMP JUMPDEST SWAP1 SWAP2 POP PUSH1 0xE4 CALLDATALOAD PUSH1 0x1 PUSH1 0x1 PUSH1 0xA0 SHL SUB DUP2 AND SWAP2 SWAP1 DUP3 SWAP1 SUB PUSH2 0x183 JUMPI PUSH1 0x1 PUSH1 0x1 PUSH1 0xA0 SHL SUB AND EQ SWAP1 DUP11 PUSH2 0x464 JUMP JUMPDEST POP PUSH1 0xE4 CALLDATALOAD PUSH1 0x1 PUSH1 0x1 PUSH1 0xA0 SHL SUB DUP2 AND SWAP1 DUP2 SWAP1 SUB PUSH2 0x183 JUMPI ISZERO PUSH2 0x436 JUMP JUMPDEST POP PUSH1 0xC4 CALLDATALOAD PUSH1 0x1 PUSH1 0x1 PUSH1 0xA0 SHL SUB DUP2 AND DUP2 SUB PUSH2 0x183 JUMPI PUSH1 0x1 PUSH1 0x1 PUSH1 0xA0 SHL SUB AND ISZERO PUSH2 0x42F JUMP JUMPDEST PUSH1 0x40 MLOAD PUSH4 0x6EDCC523 PUSH1 0xE0 SHL DUP2 MSTORE PUSH1 0x4 SWAP1 REVERT JUMPDEST PUSH1 0x40 MLOAD PUSH4 0x20DFE2FD PUSH1 0xE0 SHL DUP2 MSTORE PUSH1 0x4 SWAP1 REVERT JUMPDEST PUSH1 0x40 MLOAD PUSH4 0xE2592AED PUSH1 0xE0 SHL DUP2 MSTORE PUSH1 0x4 SWAP1 REVERT JUMPDEST PUSH1 0x40 MLOAD PUSH4 0x2EF13105 PUSH1 0xE0 SHL DUP2 MSTORE PUSH1 0x4 SWAP1 REVERT JUMPDEST CALLVALUE PUSH2 0x183 JUMPI PUSH0 CALLDATASIZE PUSH1 0x3 NOT ADD SLT PUSH2 0x183 JUMPI PUSH1 0x20 PUSH1 0x40 MLOAD PUSH2 0x12C DUP2 MSTORE RETURN JUMPDEST CALLVALUE PUSH2 0x183 JUMPI PUSH0 CALLDATASIZE PUSH1 0x3 NOT ADD SLT PUSH2 0x183 JUMPI PUSH1 0x20 PUSH1 0x40 MLOAD PUSH1 0x16 DUP2 MSTORE RETURN JUMPDEST CALLVALUE PUSH2 0x183 JUMPI PUSH0 CALLDATASIZE PUSH1 0x3 NOT ADD SLT PUSH2 0x183 JUMPI PUSH1 0x20 PUSH1 0x1 SLOAD PUSH1 0x40 MLOAD SWAP1 DUP2 MSTORE RETURN JUMPDEST CALLVALUE PUSH2 0x183 JUMPI PUSH1 0x20 CALLDATASIZE PUSH1 0x3 NOT ADD SLT PUSH2 0x183 JUMPI PUSH1 0x4 CALLDATALOAD PUSH0 MSTORE PUSH0 PUSH1 0x20 MSTORE PUSH1 0x20 PUSH1 0xFF PUSH1 0xE PUSH1 0x40 PUSH0 KECCAK256 ADD SLOAD AND PUSH1 0x40 MLOAD SWAP1 ISZERO ISZERO DUP2 MSTORE RETURN JUMPDEST CALLVALUE PUSH2 0x183 JUMPI PUSH1 0x20 CALLDATASIZE PUSH1 0x3 NOT ADD SLT PUSH2 0x183 JUMPI PUSH1 0x4 CALLDATALOAD PUSH0 PUSH2 0x100 PUSH1 0x40 MLOAD PUSH2 0xE9D DUP2 PUSH2 0x155E JUMP JUMPDEST DUP3 DUP2 MSTORE PUSH1 0x60 PUSH1 0x20 DUP3 ADD MSTORE PUSH1 0x60 PUSH1 0x40 DUP3 ADD MSTORE DUP3 PUSH1 0x60 DUP3 ADD MSTORE PUSH1 0x40 MLOAD PUSH2 0xEC0 DUP2 PUSH2 0x157A JUMP JUMPDEST DUP4 DUP2 MSTORE DUP4 PUSH1 0x20 DUP3 ADD MSTORE DUP4 PUSH1 0x40 DUP3 ADD MSTORE DUP4 PUSH1 0x60 DUP3 ADD MSTORE DUP4 PUSH1 0x80 DUP3 ADD MSTORE DUP4 PUSH1 0xA0 DUP3 ADD MSTORE PUSH1 0x80 DUP3 ADD MSTORE PUSH2 0xEEE PUSH2 0x15D1 JUMP JUMPDEST PUSH1 0xA0 DUP3 ADD MSTORE PUSH2 0xEFB PUSH2 0x15D1 JUMP JUMPDEST PUSH1 0xC0 DUP3 ADD MSTORE PUSH1 0xE0 DUP2 ADD DUP4 SWAP1 MSTORE ADD MSTORE PUSH0 DUP2 DUP2 MSTORE PUSH1 0x20 DUP2 SWAP1 MSTORE PUSH1 0x40 SWAP1 KECCAK256 PUSH1 0x3 ADD SLOAD PUSH1 0x1 PUSH1 0x1 PUSH1 0xA0 SHL SUB AND ISZERO PUSH2 0x1AB JUMPI PUSH0 MSTORE PUSH0 PUSH1 0x20 MSTORE PUSH1 0x40 PUSH0 KECCAK256 PUSH1 0xFF PUSH1 0xE PUSH1 0x40 MLOAD SWAP3 PUSH2 0xF43 DUP5 PUSH2 0x155E JUMP JUMPDEST DUP1 SLOAD DUP5 MSTORE PUSH2 0xF53 PUSH1 0x1 DUP3 ADD PUSH2 0x1627 JUMP JUMPDEST PUSH1 0x20 DUP6 ADD MSTORE PUSH2 0xF64 PUSH1 0x2 DUP3 ADD PUSH2 0x1627 JUMP JUMPDEST PUSH1 0x40 DUP6 DUP2 ADD SWAP2 SWAP1 SWAP2 MSTORE PUSH1 0x3 DUP3 ADD SLOAD PUSH1 0x1 PUSH1 0x1 PUSH1 0xA0 SHL SUB AND PUSH1 0x60 DUP7 ADD MSTORE MLOAD PUSH2 0xF8A DUP2 PUSH2 0x157A JUMP JUMPDEST PUSH1 0x4 DUP3 ADD SLOAD PUSH2 0xFFFF DUP2 AND DUP3 MSTORE PUSH2 0xFFFF DUP2 PUSH1 0x10 SHR AND PUSH1 0x20 DUP4 ADD MSTORE PUSH2 0xFFFF DUP2 PUSH1 0x20 SHR AND PUSH1 0x40 DUP4 ADD MSTORE PUSH1 0x1 DUP1 PUSH1 0xA0 SHL SUB SWAP1 PUSH1 0x30 SHR AND PUSH1 0x60 DUP3 ADD MSTORE PUSH1 0x1 DUP1 PUSH1 0xA0 SHL SUB PUSH1 0x5 DUP4 ADD SLOAD AND PUSH1 0x80 DUP3 ADD MSTORE PUSH1 0x1 DUP1 PUSH1 0xA0 SHL SUB PUSH1 0x6 DUP4 ADD SLOAD AND PUSH1 0xA0 DUP3 ADD MSTORE PUSH1 0x80 DUP6 ADD MSTORE PUSH1 0x40 MLOAD PUSH2 0xFF6 DUP2 PUSH2 0x1595 JUMP JUMPDEST PUSH1 0x7 DUP3 ADD SLOAD DUP2 MSTORE PUSH1 0x8 DUP3 ADD SLOAD PUSH1 0x20 DUP3 ADD MSTORE PUSH1 0x9 DUP3 ADD SLOAD PUSH1 0x40 DUP3 ADD MSTORE PUSH1 0xA0 DUP6 ADD MSTORE PUSH1 0x40 MLOAD PUSH2 0x1022 DUP2 PUSH2 0x1595 JUMP JUMPDEST PUSH1 0x1 DUP1 PUSH1 0xA0 SHL SUB PUSH1 0xA DUP4 ADD SLOAD AND DUP2 MSTORE PUSH1 0xB DUP3 ADD SLOAD PUSH1 0x20 DUP3 ADD MSTORE PUSH1 0xC DUP3 ADD SLOAD PUSH1 0x40 DUP3 ADD MSTORE PUSH1 0xC0 DUP6 ADD MSTORE PUSH1 0xD DUP2 ADD SLOAD PUSH1 0xE0 DUP6 ADD MSTORE ADD SLOAD AND ISZERO ISZERO PUSH2 0x100 DUP3 ADD MSTORE PUSH1 0x40 MLOAD DUP1 SWAP2 PUSH1 0x20 DUP3 MSTORE DUP1 MLOAD PUSH1 0x20 DUP4 ADD MSTORE PUSH2 0x100 PUSH2 0x10A6 PUSH2 0x1090 PUSH1 0x20 DUP5 ADD MLOAD PUSH2 0x240 PUSH1 0x40 DUP8 ADD MSTORE PUSH2 0x260 DUP7 ADD SWAP1 PUSH2 0x1484 JUMP JUMPDEST PUSH1 0x40 DUP5 ADD MLOAD DUP6 DUP3 SUB PUSH1 0x1F NOT ADD PUSH1 0x60 DUP8 ADD MSTORE PUSH2 0x1484 JUMP JUMPDEST SWAP2 PUSH1 0x1 DUP1 PUSH1 0xA0 SHL SUB PUSH1 0x60 DUP3 ADD MLOAD AND PUSH1 0x80 DUP6 ADD MSTORE PUSH1 0x80 DUP2 ADD MLOAD PUSH2 0xFFFF DUP2 MLOAD AND PUSH1 0xA0 DUP7 ADD MSTORE PUSH2 0xFFFF PUSH1 0x20 DUP3 ADD MLOAD AND PUSH1 0xC0 DUP7 ADD MSTORE PUSH2 0xFFFF PUSH1 0x40 DUP3 ADD MLOAD AND PUSH1 0xE0 DUP7 ADD MSTORE PUSH1 0x1 DUP1 PUSH1 0xA0 SHL SUB PUSH1 0x60 DUP3 ADD MLOAD AND DUP4 DUP7 ADD MSTORE PUSH1 0x1 DUP1 PUSH1 0xA0 SHL SUB PUSH1 0x80 DUP3 ADD MLOAD AND PUSH2 0x120 DUP7 ADD MSTORE PUSH1 0xA0 PUSH1 0x1 DUP1 DUP3 SHL SUB SWAP2 ADD MLOAD AND PUSH2 0x140 DUP6 ADD MSTORE PUSH1 0x40 PUSH1 0xA0 DUP3 ADD MLOAD DUP1 MLOAD PUSH2 0x160 DUP8 ADD MSTORE PUSH1 0x20 DUP2 ADD MLOAD PUSH2 0x180 DUP8 ADD MSTORE ADD MLOAD PUSH2 0x1A0 DUP6 ADD MSTORE PUSH1 0x40 PUSH1 0xC0 DUP3 ADD MLOAD PUSH1 0x1 DUP1 PUSH1 0xA0 SHL SUB DUP2 MLOAD AND PUSH2 0x1C0 DUP8 ADD MSTORE PUSH1 0x20 DUP2 ADD MLOAD PUSH2 0x1E0 DUP8 ADD MSTORE ADD MLOAD PUSH2 0x200 DUP6 ADD MSTORE PUSH1 0xE0 DUP2 ADD MLOAD PUSH2 0x220 DUP6 ADD MSTORE ADD MLOAD ISZERO ISZERO PUSH2 0x240 DUP4 ADD MSTORE SUB SWAP1 RETURN JUMPDEST CALLVALUE PUSH2 0x183 JUMPI PUSH1 0x20 CALLDATASIZE PUSH1 0x3 NOT ADD SLT PUSH2 0x183 JUMPI PUSH1 0x4 CALLDATALOAD PUSH0 MSTORE PUSH0 PUSH1 0x20 MSTORE PUSH1 0x20 PUSH1 0x1 DUP1 PUSH1 0xA0 SHL SUB PUSH1 0x3 PUSH1 0x40 PUSH0 KECCAK256 ADD SLOAD AND PUSH1 0x40 MLOAD SWAP1 DUP2 MSTORE RETURN JUMPDEST CALLVALUE PUSH2 0x183 JUMPI PUSH1 0x20 CALLDATASIZE PUSH1 0x3 NOT ADD SLT PUSH2 0x183 JUMPI PUSH1 0x4 CALLDATALOAD PUSH0 DUP2 DUP2 MSTORE PUSH1 0x20 DUP2 SWAP1 MSTORE PUSH1 0x40 SWAP1 KECCAK256 PUSH1 0x3 ADD SLOAD PUSH1 0x1 PUSH1 0x1 PUSH1 0xA0 SHL SUB SWAP1 DUP2 AND ISZERO PUSH2 0x1AB JUMPI DUP2 PUSH0 MSTORE PUSH0 PUSH1 0x20 MSTORE PUSH1 0x3 PUSH1 0x40 PUSH0 KECCAK256 ADD SLOAD AND CALLER SUB PUSH2 0x199 JUMPI DUP1 PUSH0 MSTORE PUSH0 PUSH1 0x20 MSTORE PUSH1 0xFF PUSH1 0xE PUSH1 0x40 PUSH0 KECCAK256 ADD SLOAD AND ISZERO PUSH2 0x187 JUMPI DUP1 PUSH0 MSTORE PUSH0 PUSH1 0x20 MSTORE PUSH1 0xE PUSH1 0x40 PUSH0 KECCAK256 ADD PUSH1 0xFF NOT DUP2 SLOAD AND SWAP1 SSTORE PUSH32 0xED42FE78CC53602227647438E2D3AE5F8941ECFEA7326D0172A68AD350BC7B44 PUSH0 DUP1 LOG2 STOP JUMPDEST CALLVALUE PUSH2 0x183 JUMPI PUSH1 0xE0 CALLDATASIZE PUSH1 0x3 NOT ADD SLT PUSH2 0x183 JUMPI PUSH1 0x4 CALLDATALOAD SWAP1 PUSH1 0xC0 CALLDATASIZE PUSH1 0x23 NOT ADD SLT PUSH2 0x183 JUMPI PUSH0 DUP3 DUP2 MSTORE PUSH1 0x20 DUP2 SWAP1 MSTORE PUSH1 0x40 SWAP1 KECCAK256 PUSH1 0x3 ADD SLOAD PUSH1 0x1 PUSH1 0x1 PUSH1 0xA0 SHL SUB SWAP2 SWAP1 DUP3 AND ISZERO PUSH2 0x1475 JUMPI POP DUP2 PUSH0 MSTORE PUSH0 PUSH1 0x20 MSTORE DUP1 PUSH1 0x3 PUSH1 0x40 PUSH0 KECCAK256 ADD SLOAD AND CALLER SUB PUSH2 0x199 JUMPI DUP2 PUSH0 MSTORE PUSH0 PUSH1 0x20 MSTORE PUSH1 0xFF PUSH1 0xE PUSH1 0x40 PUSH0 KECCAK256 ADD SLOAD AND ISZERO PUSH2 0x187 JUMPI PUSH1 0x24 CALLDATALOAD PUSH2 0xFFFF DUP1 DUP3 AND DUP1 SWAP3 SUB PUSH2 0x183 JUMPI PUSH1 0x44 CALLDATALOAD DUP2 DUP2 AND DUP1 SWAP2 SUB PUSH2 0x183 JUMPI PUSH2 0x12EB SWAP1 DUP4 PUSH2 0x16E4 JUMP JUMPDEST PUSH1 0x64 CALLDATALOAD SWAP2 DUP3 AND DUP1 SWAP3 SUB PUSH2 0x183 JUMPI PUSH2 0x2710 SWAP2 PUSH2 0x1305 SWAP2 PUSH2 0x16E4 JUMP JUMPDEST SUB PUSH2 0xDAC JUMPI PUSH1 0x84 CALLDATALOAD DUP3 DUP2 AND SWAP2 DUP3 DUP3 SUB PUSH2 0x183 JUMPI DUP3 ISZERO DUP1 ISZERO PUSH2 0x1461 JUMPI JUMPDEST DUP1 ISZERO PUSH2 0x144D JUMPI JUMPDEST PUSH2 0xD0B JUMPI PUSH0 SWAP3 PUSH1 0xA4 CALLDATALOAD DUP6 DUP2 AND DUP1 SWAP2 SUB PUSH2 0x183 JUMPI DUP1 DUP3 EQ SWAP2 DUP3 ISZERO PUSH2 0x1431 JUMPI JUMPDEST POP DUP2 ISZERO PUSH2 0x141B JUMPI JUMPDEST POP PUSH2 0xD0B JUMPI DUP5 PUSH0 MSTORE PUSH0 PUSH1 0x20 MSTORE PUSH1 0x40 PUSH0 KECCAK256 SWAP3 PUSH1 0x4 DUP5 ADD SWAP3 DUP4 SLOAD SWAP3 PUSH4 0xFFFF0000 PUSH2 0x1374 PUSH2 0x1510 JUMP JUMPDEST PUSH1 0x10 SHL AND SWAP2 PUSH6 0xFFFF00000000 PUSH2 0x1388 PUSH2 0x1521 JUMP JUMPDEST PUSH1 0x20 SHL AND SWAP4 PUSH2 0x183 JUMPI PUSH1 0x1 PUSH1 0x1 PUSH1 0xD0 SHL SUB NOT SWAP1 SWAP5 AND OR OR OR PUSH1 0x30 SWAP2 SWAP1 SWAP2 SHL PUSH7 0x1000000000000 PUSH1 0x1 PUSH1 0xD0 SHL SUB AND OR SWAP1 SSTORE PUSH1 0x5 DUP2 ADD SWAP1 PUSH1 0x6 SWAP1 DUP4 PUSH2 0x13C9 PUSH2 0x1532 JUMP JUMPDEST AND SWAP3 PUSH12 0xFFFFFFFFFFFFFFFFFFFFFFFF PUSH1 0xA0 SHL SWAP4 DUP5 DUP3 SLOAD AND OR SWAP1 SSTORE ADD SWAP2 PUSH2 0x13ED PUSH2 0x1548 JUMP JUMPDEST AND SWAP1 DUP3 SLOAD AND OR SWAP1 SSTORE PUSH32 0x6A6832E461D555D62A4E056912DB929BAD6F97A0C9DDB75F6238E76D3BD42FF4 PUSH0 DUP1 LOG2 STOP JUMPDEST PUSH1 0xC4 CALLDATALOAD DUP7 DUP2 AND SWAP3 POP DUP3 SWAP1 SUB PUSH2 0x183 JUMPI EQ DUP7 PUSH2 0x134E JUMP JUMPDEST SWAP5 POP SWAP1 POP PUSH0 SWAP4 PUSH1 0xC4 CALLDATALOAD SWAP1 DUP7 DUP3 AND DUP1 SWAP3 SUB PUSH2 0x183 JUMPI EQ SWAP1 DUP8 PUSH2 0x1346 JUMP JUMPDEST POP PUSH1 0xC4 CALLDATALOAD DUP5 DUP2 AND DUP1 SWAP2 SUB PUSH2 0x183 JUMPI ISZERO PUSH2 0x1328 JUMP JUMPDEST POP PUSH1 0xA4 CALLDATALOAD DUP5 DUP2 AND DUP1 SWAP2 SUB PUSH2 0x183 JUMPI ISZERO PUSH2 0x1321 JUMP JUMPDEST PUSH4 0x6F2875CD PUSH1 0xE0 SHL DUP2 MSTORE PUSH1 0x4 SWAP1 REVERT JUMPDEST SWAP2 SWAP1 DUP3 MLOAD SWAP3 DUP4 DUP3 MSTORE PUSH0 JUMPDEST DUP5 DUP2 LT PUSH2 0x14AE JUMPI POP POP DUP3 PUSH0 PUSH1 0x20 DUP1 SWAP5 SWAP6 DUP5 ADD ADD MSTORE PUSH1 0x1F DUP1 NOT SWAP2 ADD AND ADD ADD SWAP1 JUMP JUMPDEST PUSH1 0x20 DUP2 DUP4 ADD DUP2 ADD MLOAD DUP5 DUP4 ADD DUP3 ADD MSTORE ADD PUSH2 0x148E JUMP JUMPDEST SWAP2 DUP2 PUSH1 0x1F DUP5 ADD SLT ISZERO PUSH2 0x183 JUMPI DUP3 CALLDATALOAD SWAP2 PUSH1 0x1 PUSH1 0x1 PUSH1 0x40 SHL SUB DUP4 GT PUSH2 0x183 JUMPI PUSH1 0x20 DUP4 DUP2 DUP7 ADD SWAP6 ADD ADD GT PUSH2 0x183 JUMPI JUMP JUMPDEST SWAP1 PUSH1 0x80 PUSH1 0x3 NOT DUP4 ADD SLT PUSH2 0x183 JUMPI PUSH1 0x60 PUSH1 0x4 CALLDATALOAD SWAP3 PUSH1 0x23 NOT ADD SLT PUSH2 0x183 JUMPI PUSH1 0x24 SWAP1 JUMP JUMPDEST PUSH1 0x44 CALLDATALOAD PUSH2 0xFFFF DUP2 AND DUP2 SUB PUSH2 0x183 JUMPI SWAP1 JUMP JUMPDEST PUSH1 0x64 CALLDATALOAD PUSH2 0xFFFF DUP2 AND DUP2 SUB PUSH2 0x183 JUMPI SWAP1 JUMP JUMPDEST PUSH1 0xA4 CALLDATALOAD PUSH1 0x1 PUSH1 0x1 PUSH1 0xA0 SHL SUB DUP2 AND DUP2 SUB PUSH2 0x183 JUMPI SWAP1 JUMP JUMPDEST PUSH1 0xC4 CALLDATALOAD PUSH1 0x1 PUSH1 0x1 PUSH1 0xA0 SHL SUB DUP2 AND DUP2 SUB PUSH2 0x183 JUMPI SWAP1 JUMP JUMPDEST PUSH2 0x120 DUP2 ADD SWAP1 DUP2 LT PUSH1 0x1 PUSH1 0x1 PUSH1 0x40 SHL SUB DUP3 GT OR PUSH2 0xB20 JUMPI PUSH1 0x40 MSTORE JUMP JUMPDEST PUSH1 0xC0 DUP2 ADD SWAP1 DUP2 LT PUSH1 0x1 PUSH1 0x1 PUSH1 0x40 SHL SUB DUP3 GT OR PUSH2 0xB20 JUMPI PUSH1 0x40 MSTORE JUMP JUMPDEST PUSH1 0x60 DUP2 ADD SWAP1 DUP2 LT PUSH1 0x1 PUSH1 0x1 PUSH1 0x40 SHL SUB DUP3 GT OR PUSH2 0xB20 JUMPI PUSH1 0x40 MSTORE JUMP JUMPDEST SWAP1 PUSH1 0x1F DUP1 NOT SWAP2 ADD AND DUP2 ADD SWAP1 DUP2 LT PUSH1 0x1 PUSH1 0x1 PUSH1 0x40 SHL SUB DUP3 GT OR PUSH2 0xB20 JUMPI PUSH1 0x40 MSTORE JUMP JUMPDEST PUSH1 0x40 MLOAD SWAP1 PUSH2 0x15DE DUP3 PUSH2 0x1595 JUMP JUMPDEST PUSH0 PUSH1 0x40 DUP4 DUP3 DUP2 MSTORE DUP3 PUSH1 0x20 DUP3 ADD MSTORE ADD MSTORE JUMP JUMPDEST SWAP1 PUSH1 0x1 DUP3 DUP2 SHR SWAP3 AND DUP1 ISZERO PUSH2 0x161D JUMPI JUMPDEST PUSH1 0x20 DUP4 LT EQ PUSH2 0x1609 JUMPI JUMP JUMPDEST PUSH4 0x4E487B71 PUSH1 0xE0 SHL PUSH0 MSTORE PUSH1 0x22 PUSH1 0x4 MSTORE PUSH1 0x24 PUSH0 REVERT JUMPDEST SWAP2 PUSH1 0x7F AND SWAP2 PUSH2 0x15FE JUMP JUMPDEST SWAP1 PUSH1 0x40 MLOAD SWAP2 DUP3 PUSH0 DUP3 SLOAD PUSH2 0x1639 DUP2 PUSH2 0x15EF JUMP JUMPDEST SWAP1 DUP2 DUP5 MSTORE PUSH1 0x20 SWAP5 PUSH1 0x1 SWAP2 PUSH1 0x1 DUP2 AND SWAP1 DUP2 PUSH0 EQ PUSH2 0x16A7 JUMPI POP PUSH1 0x1 EQ PUSH2 0x1669 JUMPI JUMPDEST POP POP POP PUSH2 0x1667 SWAP3 POP SUB DUP4 PUSH2 0x15B0 JUMP JUMPDEST JUMP JUMPDEST PUSH0 SWAP1 DUP2 MSTORE DUP6 DUP2 KECCAK256 SWAP6 SWAP4 POP SWAP2 SWAP1 JUMPDEST DUP2 DUP4 LT PUSH2 0x168F JUMPI POP POP PUSH2 0x1667 SWAP4 POP DUP3 ADD ADD PUSH0 DUP1 DUP1 PUSH2 0x1658 JUMP JUMPDEST DUP6 SLOAD DUP9 DUP5 ADD DUP6 ADD MSTORE SWAP5 DUP6 ADD SWAP5 DUP8 SWAP5 POP SWAP2 DUP4 ADD SWAP2 PUSH2 0x1676 JUMP JUMPDEST SWAP3 POP POP POP PUSH2 0x1667 SWAP5 SWAP3 POP PUSH1 0xFF NOT AND DUP3 DUP5 ADD MSTORE ISZERO ISZERO PUSH1 0x5 SHL DUP3 ADD ADD PUSH0 DUP1 DUP1 PUSH2 0x1658 JUMP JUMPDEST PUSH1 0x1 PUSH1 0x1 PUSH1 0x40 SHL SUB DUP2 GT PUSH2 0xB20 JUMPI PUSH1 0x1F ADD PUSH1 0x1F NOT AND PUSH1 0x20 ADD SWAP1 JUMP JUMPDEST SWAP2 SWAP1 DUP3 ADD DUP1 SWAP3 GT PUSH2 0xBED JUMPI JUMP JUMPDEST SWAP3 SWAP2 SWAP3 PUSH2 0x16FD DUP3 PUSH2 0x16C9 JUMP JUMPDEST SWAP2 PUSH2 0x170B PUSH1 0x40 MLOAD SWAP4 DUP5 PUSH2 0x15B0 JUMP JUMPDEST DUP3 SWAP5 DUP2 DUP5 MSTORE DUP2 DUP4 ADD GT PUSH2 0x183 JUMPI DUP3 DUP2 PUSH1 0x20 SWAP4 DUP5 PUSH0 SWAP7 ADD CALLDATACOPY ADD ADD MSTORE JUMP JUMPDEST MLOAD SWAP1 DUP2 PUSH1 0x7 SIGNEXTEND DUP3 SUB PUSH2 0x183 JUMPI JUMP JUMPDEST SWAP1 SWAP2 PUSH1 0x7 SIGNEXTEND DUP1 ISZERO PUSH2 0x180F JUMPI PUSH1 0x40 MLOAD PUSH4 0xECA36917 PUSH1 0xE0 SHL DUP2 MSTORE PUSH1 0x1 PUSH1 0x1 PUSH1 0xA0 SHL SUB SWAP3 DUP4 AND PUSH1 0x4 DUP3 ADD MSTORE ADDRESS PUSH1 0x24 DUP3 ADD MSTORE SWAP3 DUP3 AND PUSH1 0x44 DUP5 ADD MSTORE PUSH1 0x64 DUP4 ADD MSTORE PUSH1 0x20 SWAP1 DUP3 SWAP1 PUSH1 0x84 SWAP1 DUP3 SWAP1 PUSH0 SWAP1 PUSH32 0x0 AND GAS CALL SWAP1 DUP2 ISZERO PUSH2 0xC6A JUMPI PUSH0 SWAP2 PUSH2 0x17D5 JUMPI JUMPDEST POP PUSH1 0x7 SIGNEXTEND PUSH1 0x16 DUP2 SUB PUSH2 0x17BD JUMPI POP JUMP JUMPDEST PUSH1 0x24 SWAP1 PUSH1 0x40 MLOAD SWAP1 PUSH4 0xDFB08D9D PUSH1 0xE0 SHL DUP3 MSTORE PUSH1 0x4 DUP3 ADD MSTORE REVERT JUMPDEST SWAP1 POP PUSH1 0x20 DUP2 RETURNDATASIZE PUSH1 0x20 GT PUSH2 0x1807 JUMPI JUMPDEST DUP2 PUSH2 0x17F0 PUSH1 0x20 SWAP4 DUP4 PUSH2 0x15B0 JUMP JUMPDEST DUP2 ADD SUB SLT PUSH2 0x183 JUMPI PUSH2 0x1801 SWAP1 PUSH2 0x1727 JUMP JUMPDEST PUSH0 PUSH2 0x17AE JUMP JUMPDEST RETURNDATASIZE SWAP2 POP PUSH2 0x17E3 JUMP JUMPDEST POP POP POP JUMP INVALID LOG2 PUSH5 0x6970667358 0x22 SLT KECCAK256 POP 0xAD CREATE LOG0 OR 0xE2 0xB7 0xBC CODESIZE TLOAD SWAP15 0xFB SWAP2 0xA9 0xCE 0xC7 0x4E SAR PREVRANDAO ADDRESS SWAP5 DUP1 OR 0xCC 0x22 BLOBHASH 0xB5 EXP PREVRANDAO 0xDE TSTORE 0xC4 PUSH5 0x736F6C6343 STOP ADDMOD XOR STOP CALLER "},"methodIdentifiers":{"HTS_SUCCESS()":"bd9fa86a","LAUNCHPAD_FEE_BPS()":"c8993e8c","corpusProtocolWallet()":"f449e335","createCorpus(string,string,(uint16,uint16,uint16,address,address,address),(uint256,uint256,uint256),(address,uint256,uint256),string,string)":"dee4e43b","creatorOf(uint256)":"589a1743","deactivateCorpus(uint256)":"4362e30c","getCorpus(uint256)":"6b6e2411","hts()":"f453a53e","isActive(uint256)":"82afd23b","nextCorpusId()":"b65b6576","updateKernel(uint256,(uint256,uint256,uint256))":"e556887a","updatePatron(uint256,(uint16,uint16,uint16,address,address,address))":"11642020","updatePulse(uint256,(address,uint256,uint256))":"f830db06"}}}}}