{
  "_format": "hh-sol-artifact-1",
  "contractName": "CorpusRegistry",
  "sourceName": "contracts/CorpusRegistry.sol",
  "abi": [
    {
      "inputs": [
        {
          "internalType": "address",
          "name": "_htsPrecompile",
          "type": "address"
        },
        {
          "internalType": "address",
          "name": "_corpusProtocolWallet",
          "type": "address"
        }
      ],
      "stateMutability": "nonpayable",
      "type": "constructor"
    },
    {
      "inputs": [],
      "name": "CorpusInactive",
      "type": "error"
    },
    {
      "inputs": [],
      "name": "CorpusNotFound",
      "type": "error"
    },
    {
      "inputs": [],
      "name": "EmptyName",
      "type": "error"
    },
    {
      "inputs": [],
      "name": "EmptyTokenName",
      "type": "error"
    },
    {
      "inputs": [
        {
          "internalType": "int64",
          "name": "responseCode",
          "type": "int64"
        }
      ],
      "name": "HTSCreateFailed",
      "type": "error"
    },
    {
      "inputs": [
        {
          "internalType": "int64",
          "name": "responseCode",
          "type": "int64"
        }
      ],
      "name": "HTSTransferFailed",
      "type": "error"
    },
    {
      "inputs": [],
      "name": "InvalidAddress",
      "type": "error"
    },
    {
      "inputs": [],
      "name": "InvalidShares",
      "type": "error"
    },
    {
      "inputs": [],
      "name": "NotCreator",
      "type": "error"
    },
    {
      "inputs": [],
      "name": "SupplyTooLarge",
      "type": "error"
    },
    {
      "anonymous": false,
      "inputs": [
        {
          "indexed": true,
          "internalType": "uint256",
          "name": "corpusId",
          "type": "uint256"
        },
        {
          "indexed": true,
          "internalType": "address",
          "name": "creator",
          "type": "address"
        },
        {
          "indexed": false,
          "internalType": "string",
          "name": "name",
          "type": "string"
        }
      ],
      "name": "CorpusCreated",
      "type": "event"
    },
    {
      "anonymous": false,
      "inputs": [
        {
          "indexed": true,
          "internalType": "uint256",
          "name": "corpusId",
          "type": "uint256"
        }
      ],
      "name": "CorpusDeactivated",
      "type": "event"
    },
    {
      "anonymous": false,
      "inputs": [
        {
          "indexed": true,
          "internalType": "uint256",
          "name": "corpusId",
          "type": "uint256"
        }
      ],
      "name": "KernelUpdated",
      "type": "event"
    },
    {
      "anonymous": false,
      "inputs": [
        {
          "indexed": true,
          "internalType": "uint256",
          "name": "corpusId",
          "type": "uint256"
        }
      ],
      "name": "PatronUpdated",
      "type": "event"
    },
    {
      "anonymous": false,
      "inputs": [
        {
          "indexed": true,
          "internalType": "uint256",
          "name": "corpusId",
          "type": "uint256"
        },
        {
          "indexed": false,
          "internalType": "address",
          "name": "tokenAddress",
          "type": "address"
        },
        {
          "indexed": false,
          "internalType": "uint256",
          "name": "totalSupply",
          "type": "uint256"
        },
        {
          "indexed": false,
          "internalType": "uint256",
          "name": "protocolFee",
          "type": "uint256"
        }
      ],
      "name": "PulseTokenCreated",
      "type": "event"
    },
    {
      "anonymous": false,
      "inputs": [
        {
          "indexed": true,
          "internalType": "uint256",
          "name": "corpusId",
          "type": "uint256"
        }
      ],
      "name": "PulseUpdated",
      "type": "event"
    },
    {
      "inputs": [],
      "name": "HTS_SUCCESS",
      "outputs": [
        {
          "internalType": "int64",
          "name": "",
          "type": "int64"
        }
      ],
      "stateMutability": "view",
      "type": "function"
    },
    {
      "inputs": [],
      "name": "LAUNCHPAD_FEE_BPS",
      "outputs": [
        {
          "internalType": "uint16",
          "name": "",
          "type": "uint16"
        }
      ],
      "stateMutability": "view",
      "type": "function"
    },
    {
      "inputs": [],
      "name": "corpusProtocolWallet",
      "outputs": [
        {
          "internalType": "address",
          "name": "",
          "type": "address"
        }
      ],
      "stateMutability": "view",
      "type": "function"
    },
    {
      "inputs": [
        {
          "internalType": "string",
          "name": "name",
          "type": "string"
        },
        {
          "internalType": "string",
          "name": "category",
          "type": "string"
        },
        {
          "components": [
            {
              "internalType": "uint16",
              "name": "creatorShare",
              "type": "uint16"
            },
            {
              "internalType": "uint16",
              "name": "investorShare",
              "type": "uint16"
            },
            {
              "internalType": "uint16",
              "name": "treasuryShare",
              "type": "uint16"
            },
            {
              "internalType": "address",
              "name": "creatorAddr",
              "type": "address"
            },
            {
              "internalType": "address",
              "name": "investorAddr",
              "type": "address"
            },
            {
              "internalType": "address",
              "name": "treasuryAddr",
              "type": "address"
            }
          ],
          "internalType": "struct CorpusRegistry.PatronConfig",
          "name": "patron",
          "type": "tuple"
        },
        {
          "components": [
            {
              "internalType": "uint256",
              "name": "approvalThreshold",
              "type": "uint256"
            },
            {
              "internalType": "uint256",
              "name": "gtmBudget",
              "type": "uint256"
            },
            {
              "internalType": "uint256",
              "name": "minPatronPulse",
              "type": "uint256"
            }
          ],
          "internalType": "struct CorpusRegistry.KernelConfig",
          "name": "kernel",
          "type": "tuple"
        },
        {
          "components": [
            {
              "internalType": "address",
              "name": "hederaTokenAddr",
              "type": "address"
            },
            {
              "internalType": "uint256",
              "name": "totalSupply",
              "type": "uint256"
            },
            {
              "internalType": "uint256",
              "name": "priceUsdCents",
              "type": "uint256"
            }
          ],
          "internalType": "struct CorpusRegistry.PulseConfig",
          "name": "pulse",
          "type": "tuple"
        },
        {
          "internalType": "string",
          "name": "tokenName",
          "type": "string"
        },
        {
          "internalType": "string",
          "name": "tokenSymbol",
          "type": "string"
        }
      ],
      "name": "createCorpus",
      "outputs": [
        {
          "internalType": "uint256",
          "name": "corpusId",
          "type": "uint256"
        }
      ],
      "stateMutability": "payable",
      "type": "function"
    },
    {
      "inputs": [
        {
          "internalType": "uint256",
          "name": "corpusId",
          "type": "uint256"
        }
      ],
      "name": "creatorOf",
      "outputs": [
        {
          "internalType": "address",
          "name": "",
          "type": "address"
        }
      ],
      "stateMutability": "view",
      "type": "function"
    },
    {
      "inputs": [
        {
          "internalType": "uint256",
          "name": "corpusId",
          "type": "uint256"
        }
      ],
      "name": "deactivateCorpus",
      "outputs": [],
      "stateMutability": "nonpayable",
      "type": "function"
    },
    {
      "inputs": [
        {
          "internalType": "uint256",
          "name": "corpusId",
          "type": "uint256"
        }
      ],
      "name": "getCorpus",
      "outputs": [
        {
          "components": [
            {
              "internalType": "uint256",
              "name": "id",
              "type": "uint256"
            },
            {
              "internalType": "string",
              "name": "name",
              "type": "string"
            },
            {
              "internalType": "string",
              "name": "category",
              "type": "string"
            },
            {
              "internalType": "address",
              "name": "creator",
              "type": "address"
            },
            {
              "components": [
                {
                  "internalType": "uint16",
                  "name": "creatorShare",
                  "type": "uint16"
                },
                {
                  "internalType": "uint16",
                  "name": "investorShare",
                  "type": "uint16"
                },
                {
                  "internalType": "uint16",
                  "name": "treasuryShare",
                  "type": "uint16"
                },
                {
                  "internalType": "address",
                  "name": "creatorAddr",
                  "type": "address"
                },
                {
                  "internalType": "address",
                  "name": "investorAddr",
                  "type": "address"
                },
                {
                  "internalType": "address",
                  "name": "treasuryAddr",
                  "type": "address"
                }
              ],
              "internalType": "struct CorpusRegistry.PatronConfig",
              "name": "patron",
              "type": "tuple"
            },
            {
              "components": [
                {
                  "internalType": "uint256",
                  "name": "approvalThreshold",
                  "type": "uint256"
                },
                {
                  "internalType": "uint256",
                  "name": "gtmBudget",
                  "type": "uint256"
                },
                {
                  "internalType": "uint256",
                  "name": "minPatronPulse",
                  "type": "uint256"
                }
              ],
              "internalType": "struct CorpusRegistry.KernelConfig",
              "name": "kernel",
              "type": "tuple"
            },
            {
              "components": [
                {
                  "internalType": "address",
                  "name": "hederaTokenAddr",
                  "type": "address"
                },
                {
                  "internalType": "uint256",
                  "name": "totalSupply",
                  "type": "uint256"
                },
                {
                  "internalType": "uint256",
                  "name": "priceUsdCents",
                  "type": "uint256"
                }
              ],
              "internalType": "struct CorpusRegistry.PulseConfig",
              "name": "pulse",
              "type": "tuple"
            },
            {
              "internalType": "uint256",
              "name": "createdAt",
              "type": "uint256"
            },
            {
              "internalType": "bool",
              "name": "active",
              "type": "bool"
            }
          ],
          "internalType": "struct CorpusRegistry.Corpus",
          "name": "",
          "type": "tuple"
        }
      ],
      "stateMutability": "view",
      "type": "function"
    },
    {
      "inputs": [],
      "name": "hts",
      "outputs": [
        {
          "internalType": "contract IHederaTokenService",
          "name": "",
          "type": "address"
        }
      ],
      "stateMutability": "view",
      "type": "function"
    },
    {
      "inputs": [
        {
          "internalType": "uint256",
          "name": "corpusId",
          "type": "uint256"
        }
      ],
      "name": "isActive",
      "outputs": [
        {
          "internalType": "bool",
          "name": "",
          "type": "bool"
        }
      ],
      "stateMutability": "view",
      "type": "function"
    },
    {
      "inputs": [],
      "name": "nextCorpusId",
      "outputs": [
        {
          "internalType": "uint256",
          "name": "",
          "type": "uint256"
        }
      ],
      "stateMutability": "view",
      "type": "function"
    },
    {
      "inputs": [
        {
          "internalType": "uint256",
          "name": "corpusId",
          "type": "uint256"
        },
        {
          "components": [
            {
              "internalType": "uint256",
              "name": "approvalThreshold",
              "type": "uint256"
            },
            {
              "internalType": "uint256",
              "name": "gtmBudget",
              "type": "uint256"
            },
            {
              "internalType": "uint256",
              "name": "minPatronPulse",
              "type": "uint256"
            }
          ],
          "internalType": "struct CorpusRegistry.KernelConfig",
          "name": "kernel",
          "type": "tuple"
        }
      ],
      "name": "updateKernel",
      "outputs": [],
      "stateMutability": "nonpayable",
      "type": "function"
    },
    {
      "inputs": [
        {
          "internalType": "uint256",
          "name": "corpusId",
          "type": "uint256"
        },
        {
          "components": [
            {
              "internalType": "uint16",
              "name": "creatorShare",
              "type": "uint16"
            },
            {
              "internalType": "uint16",
              "name": "investorShare",
              "type": "uint16"
            },
            {
              "internalType": "uint16",
              "name": "treasuryShare",
              "type": "uint16"
            },
            {
              "internalType": "address",
              "name": "creatorAddr",
              "type": "address"
            },
            {
              "internalType": "address",
              "name": "investorAddr",
              "type": "address"
            },
            {
              "internalType": "address",
              "name": "treasuryAddr",
              "type": "address"
            }
          ],
          "internalType": "struct CorpusRegistry.PatronConfig",
          "name": "patron",
          "type": "tuple"
        }
      ],
      "name": "updatePatron",
      "outputs": [],
      "stateMutability": "nonpayable",
      "type": "function"
    },
    {
      "inputs": [
        {
          "internalType": "uint256",
          "name": "corpusId",
          "type": "uint256"
        },
        {
          "components": [
            {
              "internalType": "address",
              "name": "hederaTokenAddr",
              "type": "address"
            },
            {
              "internalType": "uint256",
              "name": "totalSupply",
              "type": "uint256"
            },
            {
              "internalType": "uint256",
              "name": "priceUsdCents",
              "type": "uint256"
            }
          ],
          "internalType": "struct CorpusRegistry.PulseConfig",
          "name": "pulse",
          "type": "tuple"
        }
      ],
      "name": "updatePulse",
      "outputs": [],
      "stateMutability": "nonpayable",
      "type": "function"
    },
    {
      "stateMutability": "payable",
      "type": "receive"
    }
  ],
  "bytecode": "0x60c03461009d57601f61191438819003918201601f19168301916001600160401b038311848410176100a157808492604094855283398101031261009d57610052602061004b836100b5565b92016100b5565b600180556001600160a01b0390911660805260a05260405161184a90816100ca82396080518181816101d20152818161069a015261177e015260a05181818161021601526107220152f35b5f80fd5b634e487b7160e01b5f52604160045260245ffd5b51906001600160a01b038216820361009d5756fe608080604052600436101561001c575b50361561001a575f80fd5b005b5f3560e01c9081631164202014611252575080634362e30c146111b4578063589a1743146111805780636b6e241114610e7957806382afd23b14610e48578063b65b657614610e2b578063bd9fa86a14610e10578063c8993e8c14610df4578063dee4e43b146102ec578063e556887a14610245578063f449e33514610201578063f453a53e146101bd5763f830db06146100b7575f61000f565b34610183576100c5366114ef565b5f828152602081905260409020600301546001600160a01b0391908216156101ab57825f525f60205281600360405f20015416330361019957825f525f60205260ff600e60405f200154161561018757825f525f60205260405f2091600a830191803591821680920361018357600c926040926bffffffffffffffffffffffff60a01b8254161790556020810135600b85015501359101557f39cb946c4aba4a9442a0e861abdad3b6a4eeba112d6a0299411d7d0b83e445cc5f80a2005b5f80fd5b6040516305e58dbb60e11b8152600490fd5b6040516393687c0b60e01b8152600490fd5b604051636f2875cd60e01b8152600490fd5b34610183575f366003190112610183576040517f00000000000000000000000000000000000000000000000000000000000000006001600160a01b03168152602090f35b34610183575f366003190112610183576040517f00000000000000000000000000000000000000000000000000000000000000006001600160a01b03168152602090f35b3461018357610253366114ef565b5f828152602081905260409020600301546001600160a01b03908116156101ab57825f525f602052600360405f20015416330361019957815f525f60205260ff600e60405f200154161561018757815f525f60205260096040805f2092803560078501556020810135600885015501359101557f942cf7abe001c0241e54cb1ca85f0b7deb7a7c9531ad59f48b29b125c5cfe5415f80a2005b610200366003190112610183576004356001600160401b038111610183576103189036906004016114c2565b6024356001600160401b038111610183576103379036906004016114c2565b9060c03660431901126101835760603661010319011261018357606036610163190112610183576101c4356001600160401b0381116101835761037e9036906004016114c2565b90946101e4356001600160401b038111610183576103a09036906004016114c2565b96908615610de2578315610dd057677fffffffffffffff6101843511610dbe5760443561ffff81168091036101835760643561ffff8116809103610183576103e7916116e4565b61ffff608435169081608435036101835761271091610405916116e4565b03610dac5760a4356001600160a01b0381168103610183576001600160a01b038116158015610d89575b8015610d6d575b610d0b5760c4356001600160a01b0381168103610183576001600160a01b0382811690821614918215610d43575b508115610d1d575b50610d0b57600154975f198914610bed5760018901600155604051918260208101106001600160401b03602085011117610b20576104ed91602084016040525f84526104e4604051956104be87611595565b5f87523060208801526276a7006040880152604051986104dd8a61155e565b36916116f1565b875236916116f1565b60208501523060408501526040518060408101106001600160401b03604083011117610b205760408101604052601281527121b7b9383ab990283ab639b2902a37b5b2b760711b60208201526060850152600160808501526001600160401b03610184351660070b60a08501525f60c085015260e084015261010083015260405191630fb65bf360e01b835260606004840152826105de6105b561059f845161016060648601526101c4850190611484565b6020850151848203606319016084860152611484565b60408401516001600160a01b031660a484015260608401518382036063190160c4850152611484565b6080830151151560e483015260a083015160070b61010483015260c0830151151561012483015260e08301519060631983820301610144840152815180825260208201916020808360051b8301019401925f915b838310610c755750505050508190604061010081950151805160070b61016485015260018060a01b03602082015116610184850152015160070b6101a48301526001600160401b03610184351660070b60248301526006604483015203813460018060a01b037f0000000000000000000000000000000000000000000000000000000000000000165af1918215610c6a575f905f93610c19575b5060070b60168103610c01575061012c936101843585610184350204851461018435151715610bed576101843561271086820204810311610bed576107476001600160401b03612710876101843502041660070b7f000000000000000000000000000000000000000000000000000000000000000085611735565b610774610752611532565b6001600160401b036127108861018435020461018435031660070b9085611735565b865f525f60205260405f20938785556001600160401b038711610b205761079e60018601546115ef565b601f8111610ba9575b50865f601f8211600114610b3f575f91610b34575b508760011b905f198960031b1c19161760018601555b6001600160401b038211610b205781906107ef60028701546115ef565b601f8111610ad0575b505f90601f8311600114610a63575f92610a58575b50508160011b915f199060031b1c19161760028401555b6003830180546001600160a01b03199081163317909155936004840161ffff61084b611510565b1681549063ffff000061085c611521565b60101b16906601000000000000600160d01b03610877611532565b60301b169265ffffffffffff60d01b16171765ffff0000000060843560201b16171790556005840160018060a01b036108ae611548565b825488169116179055600684016001600160a01b0360e435908116908190036101835781548716179055610104356007850155610124356008850155610144356009850155610164356001600160a01b03811603610183578695867f2963748485bfa9355f742a7df0403d3195c000cbd62a9973895a16f703ba382e61271094600e887fdc00c66624b323ab9355e9f43641a4356213d3b7ff59604457e114ddbdc526ed9a600a60609b0154169861018435600b8301556101a435600c83015560018060a01b0316809917600a82015542600d82015501600160ff1982541617905583604051916020835281602084015260408301375f604085830101526040813395601f80199101168101030190a36040519283526101843560208401526101843502046040820152a2476109ea575b602090604051908152f35b5f80808047335af13d15610a53573d610a02816116c9565b90610a1060405192836115b0565b81525f60203d92013e5b6109df5760405162461bcd60e51b815260206004820152600d60248201526c1c99599d5b990819985a5b1959609a1b6044820152606490fd5b610a1a565b01359050888061080d565b909250600286015f5260205f20905f935b601f1984168510610ab8576001945083601f19811610610a9f575b505050811b016002840155610824565b01355f19600384901b60f8161c19169055888080610a8f565b81810135835560209485019460019093019201610a74565b909150600286015f5260205f20601f840160051c810160208510610b19575b90849392915b601f830160051c82018110610b0b5750506107f8565b5f8155859450600101610af5565b5080610aef565b634e487b7160e01b5f52604160045260245ffd5b9050830135896107bc565b9050600186015f5260205f20905f5b601f198a168110610b91575088601f19811610610b78575b5050600187811b0160018601556107d2565b8401355f1960038a901b60f8161c191690558880610b66565b90916020600181928589013581550193019101610b4e565b600186015f5260205f20601f890160051c810160208a10610be6575b601f830160051c82018110610bdb5750506107a7565b5f8155600101610bc5565b5080610bc5565b634e487b7160e01b5f52601160045260245ffd5b6024906040519063530b5d0d60e01b82526004820152fd5b9250506040823d604011610c62575b81610c35604093836115b0565b81010312610183576020610c4883611727565b920151916001600160a01b038316830361018357876106cc565b3d9150610c28565b6040513d5f823e3d90fd5b91939695509193602080600192601f19858203018652818a5180518352015190604083820152815115156040820152848060a01b038383015116606082015260c0610ce8610cd2604085015160a0608086015260e0850190611484565b6060850151848203603f190160a0860152611484565b926080878060a01b03910151169101529801930193019092889596949293610632565b60405163e6c4247b60e01b8152600490fd5b60e4356001600160a01b0381169250829003610183576001600160a01b0316148961046c565b90915060e4356001600160a01b0381169190829003610183576001600160a01b031614908a610464565b5060e4356001600160a01b038116908190036101835715610436565b5060c4356001600160a01b0381168103610183576001600160a01b03161561042f565b604051636edcc52360e01b8152600490fd5b6040516320dfe2fd60e01b8152600490fd5b60405163e2592aed60e01b8152600490fd5b604051632ef1310560e01b8152600490fd5b34610183575f36600319011261018357602060405161012c8152f35b34610183575f36600319011261018357602060405160168152f35b34610183575f366003190112610183576020600154604051908152f35b34610183576020366003190112610183576004355f525f602052602060ff600e60405f200154166040519015158152f35b34610183576020366003190112610183576004355f610100604051610e9d8161155e565b8281526060602082015260606040820152826060820152604051610ec08161157a565b8381528360208201528360408201528360608201528360808201528360a08201526080820152610eee6115d1565b60a0820152610efb6115d1565b60c082015260e0810183905201525f818152602081905260409020600301546001600160a01b0316156101ab575f525f60205260405f2060ff600e60405192610f438461155e565b80548452610f5360018201611627565b6020850152610f6460028201611627565b60408581019190915260038201546001600160a01b0316606086015251610f8a8161157a565b600482015461ffff8116825261ffff8160101c16602083015261ffff8160201c16604083015260018060a01b039060301c16606082015260018060a01b03600583015416608082015260018060a01b0360068301541660a08201526080850152604051610ff681611595565b60078201548152600882015460208201526009820154604082015260a085015260405161102281611595565b60018060a01b03600a830154168152600b8201546020820152600c820154604082015260c0850152600d81015460e08501520154161515610100820152604051809160208252805160208301526101006110a661109060208401516102406040870152610260860190611484565b6040840151858203601f19016060870152611484565b9160018060a01b036060820151166080850152608081015161ffff81511660a086015261ffff60208201511660c086015261ffff60408201511660e086015260018060a01b036060820151168386015260018060a01b0360808201511661012086015260a0600180821b0391015116610140850152604060a08201518051610160870152602081015161018087015201516101a0850152604060c082015160018060a01b038151166101c087015260208101516101e0870152015161020085015260e0810151610220850152015115156102408301520390f35b34610183576020366003190112610183576004355f525f602052602060018060a01b03600360405f20015416604051908152f35b34610183576020366003190112610183576004355f818152602081905260409020600301546001600160a01b03908116156101ab57815f525f602052600360405f20015416330361019957805f525f60205260ff600e60405f200154161561018757805f525f602052600e60405f200160ff1981541690557fed42fe78cc53602227647438e2d3ae5f8941ecfea7326d0172a68ad350bc7b445f80a2005b346101835760e0366003190112610183576004359060c0366023190112610183575f828152602081905260409020600301546001600160a01b0391908216156114755750815f525f60205280600360405f20015416330361019957815f525f60205260ff600e60405f20015416156101875760243561ffff80821680920361018357604435818116809103610183576112eb90836116e4565b6064359182168092036101835761271091611305916116e4565b03610dac57608435828116918282036101835782158015611461575b801561144d575b610d0b575f9260a43585811680910361018357808214918215611431575b50811561141b575b50610d0b57845f525f60205260405f2092600484019283549263ffff0000611374611510565b60101b169165ffff00000000611388611521565b60201b1693610183576001600160d01b031990941617171760309190911b6601000000000000600160d01b03161790556005810190600690836113c9611532565b16926bffffffffffffffffffffffff60a01b938482541617905501916113ed611548565b16908254161790557f6a6832e461d555d62a4e056912db929bad6f97a0c9ddb75f6238e76d3bd42ff45f80a2005b60c435868116925082900361018357148661134e565b945090505f9360c4359086821680920361018357149087611346565b5060c4358481168091036101835715611328565b5060a4358481168091036101835715611321565b636f2875cd60e01b8152600490fd5b91908251928382525f5b8481106114ae575050825f602080949584010152601f8019910116010190565b60208183018101518483018201520161148e565b9181601f84011215610183578235916001600160401b038311610183576020838186019501011161018357565b90608060031983011261018357606060043592602319011261018357602490565b60443561ffff811681036101835790565b60643561ffff811681036101835790565b60a4356001600160a01b03811681036101835790565b60c4356001600160a01b03811681036101835790565b61012081019081106001600160401b03821117610b2057604052565b60c081019081106001600160401b03821117610b2057604052565b606081019081106001600160401b03821117610b2057604052565b90601f801991011681019081106001600160401b03821117610b2057604052565b604051906115de82611595565b5f6040838281528260208201520152565b90600182811c9216801561161d575b602083101461160957565b634e487b7160e01b5f52602260045260245ffd5b91607f16916115fe565b9060405191825f8254611639816115ef565b908184526020946001916001811690815f146116a75750600114611669575b505050611667925003836115b0565b565b5f90815285812095935091905b81831061168f57505061166793508201015f8080611658565b85548884018501529485019487945091830191611676565b9250505061166794925060ff191682840152151560051b8201015f8080611658565b6001600160401b038111610b2057601f01601f191660200190565b91908201809211610bed57565b9291926116fd826116c9565b9161170b60405193846115b0565b829481845281830111610183578281602093845f960137010152565b51908160070b820361018357565b909160070b801561180f5760405163eca3691760e01b81526001600160a01b03928316600482015230602482015292821660448401526064830152602090829060849082905f907f0000000000000000000000000000000000000000000000000000000000000000165af1908115610c6a575f916117d5575b5060070b601681036117bd5750565b6024906040519063dfb08d9d60e01b82526004820152fd5b90506020813d602011611807575b816117f0602093836115b0565b810103126101835761180190611727565b5f6117ae565b3d91506117e3565b50505056fea264697066735822122050adf0a017e2b7bc385c9efb91a9cec74e1d4430948017cc2249b50a44de5dc464736f6c63430008180033",
  "linkReferences": {},
  "deployedLinkReferences": {}
}