{
  "_format": "hh-sol-artifact-1",
  "contractName": "MockHederaTokenService",
  "sourceName": "contracts/mocks/MockHederaTokenService.sol",
  "abi": [
    {
      "inputs": [],
      "name": "SUCCESS",
      "outputs": [
        {
          "internalType": "int64",
          "name": "",
          "type": "int64"
        }
      ],
      "stateMutability": "view",
      "type": "function"
    },
    {
      "inputs": [
        {
          "internalType": "address",
          "name": "",
          "type": "address"
        },
        {
          "internalType": "address",
          "name": "",
          "type": "address"
        }
      ],
      "name": "balanceOf",
      "outputs": [
        {
          "internalType": "int64",
          "name": "",
          "type": "int64"
        }
      ],
      "stateMutability": "view",
      "type": "function"
    },
    {
      "inputs": [
        {
          "components": [
            {
              "internalType": "string",
              "name": "name",
              "type": "string"
            },
            {
              "internalType": "string",
              "name": "symbol",
              "type": "string"
            },
            {
              "internalType": "address",
              "name": "treasury",
              "type": "address"
            },
            {
              "internalType": "string",
              "name": "memo",
              "type": "string"
            },
            {
              "internalType": "bool",
              "name": "tokenSupplyType",
              "type": "bool"
            },
            {
              "internalType": "int64",
              "name": "maxSupply",
              "type": "int64"
            },
            {
              "internalType": "bool",
              "name": "freezeDefault",
              "type": "bool"
            },
            {
              "components": [
                {
                  "internalType": "uint256",
                  "name": "keyType",
                  "type": "uint256"
                },
                {
                  "components": [
                    {
                      "internalType": "bool",
                      "name": "inheritAccountKey",
                      "type": "bool"
                    },
                    {
                      "internalType": "address",
                      "name": "contractId",
                      "type": "address"
                    },
                    {
                      "internalType": "bytes",
                      "name": "ed25519",
                      "type": "bytes"
                    },
                    {
                      "internalType": "bytes",
                      "name": "ECDSA_secp256k1",
                      "type": "bytes"
                    },
                    {
                      "internalType": "address",
                      "name": "delegatableContractId",
                      "type": "address"
                    }
                  ],
                  "internalType": "struct IHederaTokenService.KeyValue",
                  "name": "key",
                  "type": "tuple"
                }
              ],
              "internalType": "struct IHederaTokenService.TokenKey[]",
              "name": "tokenKeys",
              "type": "tuple[]"
            },
            {
              "components": [
                {
                  "internalType": "int64",
                  "name": "second",
                  "type": "int64"
                },
                {
                  "internalType": "address",
                  "name": "autoRenewAccount",
                  "type": "address"
                },
                {
                  "internalType": "int64",
                  "name": "autoRenewPeriod",
                  "type": "int64"
                }
              ],
              "internalType": "struct IHederaTokenService.Expiry",
              "name": "expiry",
              "type": "tuple"
            }
          ],
          "internalType": "struct IHederaTokenService.HederaToken",
          "name": "token",
          "type": "tuple"
        },
        {
          "internalType": "int64",
          "name": "initialTotalSupply",
          "type": "int64"
        },
        {
          "internalType": "int32",
          "name": "",
          "type": "int32"
        }
      ],
      "name": "createFungibleToken",
      "outputs": [
        {
          "internalType": "int64",
          "name": "",
          "type": "int64"
        },
        {
          "internalType": "address",
          "name": "",
          "type": "address"
        }
      ],
      "stateMutability": "payable",
      "type": "function"
    },
    {
      "inputs": [
        {
          "internalType": "address",
          "name": "token",
          "type": "address"
        },
        {
          "internalType": "address",
          "name": "from",
          "type": "address"
        },
        {
          "internalType": "address",
          "name": "to",
          "type": "address"
        },
        {
          "internalType": "int64",
          "name": "amount",
          "type": "int64"
        }
      ],
      "name": "transferToken",
      "outputs": [
        {
          "internalType": "int64",
          "name": "",
          "type": "int64"
        }
      ],
      "stateMutability": "nonpayable",
      "type": "function"
    },
    {
      "inputs": [
        {
          "internalType": "address",
          "name": "",
          "type": "address"
        }
      ],
      "name": "treasuryOf",
      "outputs": [
        {
          "internalType": "address",
          "name": "",
          "type": "address"
        }
      ],
      "stateMutability": "view",
      "type": "function"
    }
  ],
  "bytecode": "0x60808060405234610028575f80546001600160a01b0319166001179055610770908161002d8239f35b5f80fdfe60806040526004361015610011575f80fd5b5f3560e01c80630fb65bf31461024e578063d0a6d1a614610233578063eca36917146100dd578063f7888aec1461008d5763fd7f346b14610050575f80fd5b346100895760203660031901126100895760206001600160a01b03806100746106df565b165f526002825260405f205416604051908152f35b5f80fd5b34610089576040366003190112610089576100a66106df565b6100ae6106f5565b9060018060a01b038091165f52600160205260405f2091165f52602052602060405f205460070b604051908152f35b34610089576080366003190112610089576100f66106df565b6100fe6106f5565b6001600160a01b03916044358381169081900361008957606435918260070b80930361008957841692835f526020946001865260405f20911690815f5285528260405f205460070b126101ee57835f526001855260405f20905f52845260405f20805491838360070b0390677fffffffffffffff95677fffffffffffffff1993878413858512176101da576001600160401b031995866001600160401b0395861691161790555f526001875260405f20905f52865260405f20948554948560070b01928312908313176101da5716911617905560405160168152f35b634e487b7160e01b5f52601160045260245ffd5b60405162461bcd60e51b815260048101869052601d60248201527f4d6f636b4854533a20696e73756666696369656e742062616c616e63650000006044820152606490fd5b34610089575f36600319011261008957602060405160168152f35b600319606036820112610089576001600160401b0360043511610089576101609060043536030112610089576101a0604052600435600401356001600160401b038111610089576102a690600436918135010161068e565b608052602460043501356001600160401b038111610089576102cf90600436918135010161068e565b60a0526102e060043560440161070b565b60c052600435606401356001600160401b0381116100895761030990600436918135010161068e565b60e05261031a60043560840161071f565b6101005261032c60043560a40161072c565b6101205261033e60043560c40161071f565b6101405260043560e401356001600160401b038111610089573660238260043501011215610089576001600160401b036004828135010135116104e557600481813501013560051b9061039360208301610669565b916020836004848135010135815201366024838560043501010111610089576024836004350101905b6024838560043501010182106104f9576101608590526060600435360361010319011261008957604051606081018181106001600160401b038211176104e55760405261040e6101046004350161072c565b815261041f6101246004350161070b565b60208201526104336101446004350161072c565b604082015261018052602435600781900b8103610089576044358060030b03610089575f54906001600160a01b0380831691908281146101da576040936bffffffffffffffffffffffff60a01b90818360018701169116175f5581856080015116845f526002602052855f20918254161790556001602052835f20908460800151165f52602052825f20906001600160401b0319825416906001600160401b0316179055815190601682526020820152f35b634e487b7160e01b5f52604160045260245ffd5b8135906001600160401b038211610089576040600435860183013603602319011261008957604051908160408101106001600160401b036040840111176104e55760408281019052600435860183016024810135835260440135906001600160401b0382116100895760a06004358801850183013603602319011261008957604051928360a08101106001600160401b0360a0860111176104e55760a084016040526105af602484878b6004350101010161071f565b84526105c5604484878b6004350101010161070b565b6020850152606483868a60043501010101356001600160401b038111610089576105fd906024369186898d600435010101010161068e565b6040850152608483868a6004350101010135936001600160401b0385116100895761065360a485886106418d602460209b8c9b829e3694600435010101010161068e565b60608601528c6004350101010161070b565b60808201528382015281520192019190506103bc565b6040519190601f01601f191682016001600160401b038111838210176104e557604052565b81601f82011215610089578035906001600160401b0382116104e5576106bd601f8301601f1916602001610669565b928284526020838301011161008957815f926020809301838601378301015290565b600435906001600160a01b038216820361008957565b602435906001600160a01b038216820361008957565b35906001600160a01b038216820361008957565b3590811515820361008957565b35908160070b82036100895756fea2646970667358221220b0fab0484f8fcb0a6749e8086044b84a92987ab2232c742788d17837f81f374f64736f6c63430008180033",
  "linkReferences": {},
  "deployedLinkReferences": {}
}